{
  "contractName": "ImbuEvents",
  "abi": [
    {
      "anonymous": false,
      "inputs": [
        {
          "indexed": false,
          "internalType": "uint256",
          "name": "id",
          "type": "uint256"
        },
        {
          "indexed": false,
          "internalType": "string",
          "name": "name",
          "type": "string"
        },
        {
          "indexed": false,
          "internalType": "uint256",
          "name": "price",
          "type": "uint256"
        },
        {
          "indexed": false,
          "internalType": "string",
          "name": "startTime",
          "type": "string"
        },
        {
          "indexed": false,
          "internalType": "string",
          "name": "endTime",
          "type": "string"
        },
        {
          "indexed": false,
          "internalType": "address payable",
          "name": "owner",
          "type": "address"
        }
      ],
      "name": "EventCreated",
      "type": "event"
    },
    {
      "anonymous": false,
      "inputs": [
        {
          "indexed": false,
          "internalType": "uint256",
          "name": "id",
          "type": "uint256"
        },
        {
          "indexed": false,
          "internalType": "string",
          "name": "name",
          "type": "string"
        },
        {
          "indexed": false,
          "internalType": "uint256",
          "name": "price",
          "type": "uint256"
        },
        {
          "indexed": false,
          "internalType": "address payable",
          "name": "subscriber",
          "type": "address"
        }
      ],
      "name": "EventPurchased",
      "type": "event"
    },
    {
      "anonymous": false,
      "inputs": [
        {
          "indexed": false,
          "internalType": "uint256",
          "name": "id",
          "type": "uint256"
        },
        {
          "indexed": false,
          "internalType": "string",
          "name": "name",
          "type": "string"
        },
        {
          "indexed": false,
          "internalType": "uint256",
          "name": "price",
          "type": "uint256"
        },
        {
          "indexed": false,
          "internalType": "address payable",
          "name": "owner",
          "type": "address"
        }
      ],
      "name": "EventStarted",
      "type": "event"
    },
    {
      "constant": true,
      "inputs": [],
      "name": "eventCount",
      "outputs": [
        {
          "internalType": "uint256",
          "name": "",
          "type": "uint256"
        }
      ],
      "payable": false,
      "stateMutability": "view",
      "type": "function"
    },
    {
      "constant": true,
      "inputs": [
        {
          "internalType": "uint256",
          "name": "",
          "type": "uint256"
        }
      ],
      "name": "events",
      "outputs": [
        {
          "internalType": "uint256",
          "name": "id",
          "type": "uint256"
        },
        {
          "internalType": "string",
          "name": "name",
          "type": "string"
        },
        {
          "internalType": "uint256",
          "name": "price",
          "type": "uint256"
        },
        {
          "internalType": "address payable",
          "name": "owner",
          "type": "address"
        },
        {
          "internalType": "string",
          "name": "startTime",
          "type": "string"
        },
        {
          "internalType": "string",
          "name": "endTime",
          "type": "string"
        },
        {
          "internalType": "bool",
          "name": "isStarted",
          "type": "bool"
        }
      ],
      "payable": false,
      "stateMutability": "view",
      "type": "function"
    },
    {
      "constant": true,
      "inputs": [
        {
          "internalType": "uint256",
          "name": "",
          "type": "uint256"
        }
      ],
      "name": "subscriberList",
      "outputs": [
        {
          "internalType": "uint256",
          "name": "eventId",
          "type": "uint256"
        },
        {
          "internalType": "address payable",
          "name": "subscriberAddress",
          "type": "address"
        }
      ],
      "payable": false,
      "stateMutability": "view",
      "type": "function"
    },
    {
      "constant": true,
      "inputs": [],
      "name": "subscriberListCount",
      "outputs": [
        {
          "internalType": "uint256",
          "name": "",
          "type": "uint256"
        }
      ],
      "payable": false,
      "stateMutability": "view",
      "type": "function"
    },
    {
      "constant": false,
      "inputs": [
        {
          "internalType": "string",
          "name": "_name",
          "type": "string"
        },
        {
          "internalType": "uint256",
          "name": "_price",
          "type": "uint256"
        },
        {
          "internalType": "string",
          "name": "_startTime",
          "type": "string"
        },
        {
          "internalType": "string",
          "name": "_endTime",
          "type": "string"
        }
      ],
      "name": "createEvent",
      "outputs": [],
      "payable": false,
      "stateMutability": "nonpayable",
      "type": "function"
    },
    {
      "constant": false,
      "inputs": [
        {
          "internalType": "uint256",
          "name": "_id",
          "type": "uint256"
        }
      ],
      "name": "subscribeEvent",
      "outputs": [],
      "payable": true,
      "stateMutability": "payable",
      "type": "function"
    },
    {
      "constant": false,
      "inputs": [
        {
          "internalType": "uint256",
          "name": "_id",
          "type": "uint256"
        }
      ],
      "name": "startEvent",
      "outputs": [],
      "payable": false,
      "stateMutability": "nonpayable",
      "type": "function"
    }
  ],
  "bytecode": "0x608060405260008055600060015534801561001957600080fd5b50611626806100296000396000f3fe6080604052600436106100705760003560e01c80639052d7b91161004e5780639052d7b9146102fa578063a59a695314610328578063a720620214610363578063e237605a1461056357610070565b80630b7914301461007557806371be2e4a1461024d57806383c2eaba14610278575b600080fd5b34801561008157600080fd5b506100ae6004803603602081101561009857600080fd5b810190808035906020019092919050505061058e565b60405180888152602001806020018781526020018673ffffffffffffffffffffffffffffffffffffffff1673ffffffffffffffffffffffffffffffffffffffff16815260200180602001806020018515151515815260200184810384528a818151815260200191508051906020019080838360005b8381101561013e578082015181840152602081019050610123565b50505050905090810190601f16801561016b5780820380516001836020036101000a031916815260200191505b50848103835287818151815260200191508051906020019080838360005b838110156101a4578082015181840152602081019050610189565b50505050905090810190601f1680156101d15780820380516001836020036101000a031916815260200191505b50848103825286818151815260200191508051906020019080838360005b8381101561020a5780820151818401526020810190506101ef565b50505050905090810190601f1680156102375780820380516001836020036101000a031916815260200191505b509a505050505050505050505060405180910390f35b34801561025957600080fd5b506102626107c5565b6040518082815260200191505060405180910390f35b34801561028457600080fd5b506102b16004803603602081101561029b57600080fd5b81019080803590602001909291905050506107cb565b604051808381526020018273ffffffffffffffffffffffffffffffffffffffff1673ffffffffffffffffffffffffffffffffffffffff1681526020019250505060405180910390f35b6103266004803603602081101561031057600080fd5b810190808035906020019092919050505061080f565b005b34801561033457600080fd5b506103616004803603602081101561034b57600080fd5b8101908080359060200190929190505050610caf565b005b34801561036f57600080fd5b506105616004803603608081101561038657600080fd5b81019080803590602001906401000000008111156103a357600080fd5b8201836020820111156103b557600080fd5b803590602001918460018302840111640100000000831117156103d757600080fd5b91908080601f016020809104026020016040519081016040528093929190818152602001838380828437600081840152601f19601f820116905080830192505050505050509192919290803590602001909291908035906020019064010000000081111561044457600080fd5b82018360208201111561045657600080fd5b8035906020019184600183028401116401000000008311171561047857600080fd5b91908080601f016020809104026020016040519081016040528093929190818152602001838380828437600081840152601f19601f820116905080830192505050505050509192919290803590602001906401000000008111156104db57600080fd5b8201836020820111156104ed57600080fd5b8035906020019184600183028401116401000000008311171561050f57600080fd5b91908080601f016020809104026020016040519081016040528093929190818152602001838380828437600081840152601f19601f820116905080830192505050505050509192919290505050611128565b005b34801561056f57600080fd5b5061057861146a565b6040518082815260200191505060405180910390f35b6002602052806000526040600020600091509050806000015490806001018054600181600116156101000203166002900480601f0160208091040260200160405190810160405280929190818152602001828054600181600116156101000203166002900480156106405780601f1061061557610100808354040283529160200191610640565b820191906000526020600020905b81548152906001019060200180831161062357829003601f168201915b5050505050908060020154908060030160009054906101000a900473ffffffffffffffffffffffffffffffffffffffff1690806004018054600181600116156101000203166002900480601f01602080910402602001604051908101604052809291908181526020018280546001816001161561010002031660029004801561070a5780601f106106df5761010080835404028352916020019161070a565b820191906000526020600020905b8154815290600101906020018083116106ed57829003601f168201915b505050505090806005018054600181600116156101000203166002900480601f0160208091040260200160405190810160405280929190818152602001828054600181600116156101000203166002900480156107a85780601f1061077d576101008083540402835291602001916107a8565b820191906000526020600020905b81548152906001019060200180831161078b57829003601f168201915b5050505050908060060160009054906101000a900460ff16905087565b60005481565b60036020528060005260406000206000915090508060000154908060010160009054906101000a900473ffffffffffffffffffffffffffffffffffffffff16905082565b600060026000838152602001908152602001600020905060008160030160009054906101000a900473ffffffffffffffffffffffffffffffffffffffff169050600082600001541180156108695750600054826000015411155b61087257600080fd5b816002015434101561088357600080fd5b3373ffffffffffffffffffffffffffffffffffffffff168173ffffffffffffffffffffffffffffffffffffffff1614156108bc57600080fd5b600080905060008090505b6001548110156109725784600360008381526020019081526020016000206000015414801561095757503373ffffffffffffffffffffffffffffffffffffffff166003600083815260200190815260200160002060010160009054906101000a900473ffffffffffffffffffffffffffffffffffffffff1673ffffffffffffffffffffffffffffffffffffffff16145b156109655760019150610972565b80806001019150506108c7565b50600015158115151415610ca95760016000815480929190600101919050555060405180604001604052808581526020013373ffffffffffffffffffffffffffffffffffffffff168152506003600060015481526020019081526020016000206000820151816000015560208201518160010160006101000a81548173ffffffffffffffffffffffffffffffffffffffff021916908373ffffffffffffffffffffffffffffffffffffffff16021790555090505082600260008681526020019081526020016000206000820154816000015560018201816001019080546001816001161561010002031660029004610a6b929190611470565b50600282015481600201556003820160009054906101000a900473ffffffffffffffffffffffffffffffffffffffff168160030160006101000a81548173ffffffffffffffffffffffffffffffffffffffff021916908373ffffffffffffffffffffffffffffffffffffffff16021790555060048201816004019080546001816001161561010002031660029004610b04929190611470565b5060058201816005019080546001816001161561010002031660029004610b2c929190611470565b506006820160009054906101000a900460ff168160060160006101000a81548160ff0219169083151502179055509050508173ffffffffffffffffffffffffffffffffffffffff166108fc349081150290604051600060405180830381858888f19350505050158015610ba3573d6000803e3d6000fd5b507ffb73ef0628e895c892e317e9eed0d0be12de1455b9f47886c632582274339c34848460010185600201543360405180858152602001806020018481526020018373ffffffffffffffffffffffffffffffffffffffff1673ffffffffffffffffffffffffffffffffffffffff168152602001828103825285818154600181600116156101000203166002900481526020019150805460018160011615610100020316600290048015610c975780601f10610c6c57610100808354040283529160200191610c97565b820191906000526020600020905b815481529060010190602001808311610c7a57829003601f168201915b50509550505050505060405180910390a15b50505050565b610cb76114f7565b600260008381526020019081526020016000206040518060e001604052908160008201548152602001600182018054600181600116156101000203166002900480601f016020809104026020016040519081016040528092919081815260200182805460018160011615610100020316600290048015610d785780601f10610d4d57610100808354040283529160200191610d78565b820191906000526020600020905b815481529060010190602001808311610d5b57829003601f168201915b50505050508152602001600282015481526020016003820160009054906101000a900473ffffffffffffffffffffffffffffffffffffffff1673ffffffffffffffffffffffffffffffffffffffff1673ffffffffffffffffffffffffffffffffffffffff168152602001600482018054600181600116156101000203166002900480601f016020809104026020016040519081016040528092919081815260200182805460018160011615610100020316600290048015610e7a5780601f10610e4f57610100808354040283529160200191610e7a565b820191906000526020600020905b815481529060010190602001808311610e5d57829003601f168201915b50505050508152602001600582018054600181600116156101000203166002900480601f016020809104026020016040519081016040528092919081815260200182805460018160011615610100020316600290048015610f1c5780601f10610ef157610100808354040283529160200191610f1c565b820191906000526020600020905b815481529060010190602001808311610eff57829003601f168201915b505050505081526020016006820160009054906101000a900460ff161515151581525050905060018160c00190151590811515815250508060026000848152602001908152602001600020600082015181600001556020820151816001019080519060200190610f8d92919061154c565b506040820151816002015560608201518160030160006101000a81548173ffffffffffffffffffffffffffffffffffffffff021916908373ffffffffffffffffffffffffffffffffffffffff1602179055506080820151816004019080519060200190610ffb92919061154c565b5060a082015181600501908051906020019061101892919061154c565b5060c08201518160060160006101000a81548160ff0219169083151502179055509050507f3ff0f2c812fe8e5eed38c0bc2cd0a4589aa7c1eb7ead1909859c7a573ae8b5df82826020015183604001513360405180858152602001806020018481526020018373ffffffffffffffffffffffffffffffffffffffff1673ffffffffffffffffffffffffffffffffffffffff168152602001828103825285818151815260200191508051906020019080838360005b838110156110e75780820151818401526020810190506110cc565b50505050905090810190601f1680156111145780820380516001836020036101000a031916815260200191505b509550505050505060405180910390a15050565b600084511161113657600080fd5b600083101561114457600080fd5b600082511161115257600080fd5b600081511161116057600080fd5b60008081548092919060010191905055506040518060e0016040528060005481526020018581526020018481526020013373ffffffffffffffffffffffffffffffffffffffff1681526020018381526020018281526020016000151581525060026000805481526020019081526020016000206000820151816000015560208201518160010190805190602001906111f992919061154c565b506040820151816002015560608201518160030160006101000a81548173ffffffffffffffffffffffffffffffffffffffff021916908373ffffffffffffffffffffffffffffffffffffffff160217905550608082015181600401908051906020019061126792919061154c565b5060a082015181600501908051906020019061128492919061154c565b5060c08201518160060160006101000a81548160ff0219169083151502179055509050507fe8d0c29fa5766052570230dd96d84c686487ba683c76c1567f1917262c6734836000548585858533604051808781526020018060200186815260200180602001806020018573ffffffffffffffffffffffffffffffffffffffff1673ffffffffffffffffffffffffffffffffffffffff168152602001848103845289818151815260200191508051906020019080838360005b8381101561135757808201518184015260208101905061133c565b50505050905090810190601f1680156113845780820380516001836020036101000a031916815260200191505b50848103835287818151815260200191508051906020019080838360005b838110156113bd5780820151818401526020810190506113a2565b50505050905090810190601f1680156113ea5780820380516001836020036101000a031916815260200191505b50848103825286818151815260200191508051906020019080838360005b83811015611423578082015181840152602081019050611408565b50505050905090810190601f1680156114505780820380516001836020036101000a031916815260200191505b50995050505050505050505060405180910390a150505050565b60015481565b828054600181600116156101000203166002900490600052602060002090601f016020900481019282601f106114a957805485556114e6565b828001600101855582156114e657600052602060002091601f016020900482015b828111156114e55782548255916001019190600101906114ca565b5b5090506114f391906115cc565b5090565b6040518060e00160405280600081526020016060815260200160008152602001600073ffffffffffffffffffffffffffffffffffffffff16815260200160608152602001606081526020016000151581525090565b828054600181600116156101000203166002900490600052602060002090601f016020900481019282601f1061158d57805160ff19168380011785556115bb565b828001600101855582156115bb579182015b828111156115ba57825182559160200191906001019061159f565b5b5090506115c891906115cc565b5090565b6115ee91905b808211156115ea5760008160009055506001016115d2565b5090565b9056fea265627a7a7231582070d33d44e3f9e1d4add280fe001c86dcf99765f5fb3e32a2e0d7235ac59e2f9e64736f6c63430005100032",
  "source": "pragma solidity 0.5.16;\r\ncontract ImbuEvents {\r\n  uint public eventCount = 0;\r\n  uint public subscriberListCount = 0;\r\n  mapping(uint => Event) public events;\r\n  mapping(uint => Subscriber) public subscriberList;\r\n\r\n  struct Event {\r\n    uint id;\r\n    string name;\r\n    uint price;\r\n    address payable owner;\r\n    string startTime;\r\n    string endTime;\r\n    bool isStarted;\r\n  }\r\n  \r\n  struct Subscriber {\r\n    uint eventId;\r\n    address payable subscriberAddress;\r\n  }\r\n\r\n  event EventCreated(\r\n    uint id,\r\n    string name,\r\n    uint price,\r\n    string startTime,\r\n    string endTime,\r\n    address payable owner\r\n  );\r\n\r\n  event EventPurchased(\r\n    uint id,\r\n    string name,\r\n    uint price,\r\n    address payable subscriber\r\n  );\r\n\r\n  event EventStarted(\r\n    uint id,\r\n    string name,\r\n    uint price,\r\n    address payable owner\r\n  );\r\n\r\n  function createEvent(string memory _name, uint _price, string memory _startTime, string memory _endTime) public {\r\n    require(bytes(_name).length > 0);\r\n    require(_price >= 0);\r\n    require(bytes(_startTime).length > 0);\r\n    require(bytes(_endTime).length > 0);\r\n    eventCount ++;\r\n    events[eventCount] = Event(eventCount, _name, _price, msg.sender,  _startTime, _endTime, false);\r\n\r\n    emit EventCreated(eventCount, _name, _price, _startTime, _endTime, msg.sender);\r\n  }\r\n\r\n  function subscribeEvent(uint _id) public payable {\r\n    // Get the event\r\n    Event storage _event = events[_id];\r\n    // Get the owner\r\n    address payable _owner = _event.owner;\r\n    // Validation id, enough Ether, \r\n    require(_event.id > 0 && _event.id <= eventCount);\r\n    // Require that there is enough Ether in the transaction\r\n    require(msg.value >= _event.price);\r\n    // Require that the buyer is not the event owner\r\n    require(_owner != msg.sender);\r\n    // Check if user purchased\r\n    bool isPurchased = false;\r\n    for (uint j = 0; j < subscriberListCount; j++) {\r\n      if(subscriberList[j].eventId == _id && subscriberList[j].subscriberAddress == msg.sender) {\r\n        isPurchased = true;\r\n        break;\r\n      }\r\n    }\r\n\r\n    if (isPurchased == false) {\r\n      subscriberListCount++;\r\n      subscriberList[subscriberListCount] = Subscriber(_id, msg.sender);\r\n      // Update the event\r\n      events[_id] = _event;\r\n      // Pay the owner by sending them Ether\r\n      address(_owner).transfer(msg.value);\r\n      \r\n      emit EventPurchased(_id, _event.name, _event.price, msg.sender);\r\n    }\r\n  }\r\n\r\n  function startEvent(uint _id) public {\r\n    Event memory _event = events[_id];\r\n    _event.isStarted = true;\r\n    events[_id] = _event;\r\n\r\n    emit EventStarted(_id, _event.name, _event.price, msg.sender);\r\n  }\r\n  \r\n}\r\n",
  "sourcePath": "E:\\workspace\\imbue\\event_creator\\contracts\\ImbuEvents.sol",
  "compiler": {
    "name": "solc",
    "version": "0.5.16+commit.9c3226ce.Emscripten.clang"
  },
  "schemaVersion": "3.4.3",
  "updatedAt": "2021-09-07T03:17:18.917Z",
  "networkType": "ethereum",
  "devdoc": {
    "methods": {}
  },
  "userdoc": {
    "methods": {}
  }
}