{
  "_format": "hh-sol-artifact-1",
  "contractName": "ImbuEvents",
  "sourceName": "contracts/imbueEvents.sol",
  "abi": [
    {
      "inputs": [
        {
          "internalType": "string",
          "name": "_greeting",
          "type": "string"
        }
      ],
      "stateMutability": "nonpayable",
      "type": "constructor"
    },
    {
      "anonymous": false,
      "inputs": [
        {
          "indexed": false,
          "internalType": "uint256",
          "name": "id",
          "type": "uint256"
        },
        {
          "indexed": false,
          "internalType": "string",
          "name": "name",
          "type": "string"
        },
        {
          "indexed": false,
          "internalType": "uint256",
          "name": "price",
          "type": "uint256"
        },
        {
          "indexed": false,
          "internalType": "string",
          "name": "startTime",
          "type": "string"
        },
        {
          "indexed": false,
          "internalType": "string",
          "name": "endTime",
          "type": "string"
        },
        {
          "indexed": false,
          "internalType": "address",
          "name": "owner",
          "type": "address"
        }
      ],
      "name": "EventCreated",
      "type": "event"
    },
    {
      "anonymous": false,
      "inputs": [
        {
          "indexed": false,
          "internalType": "uint256",
          "name": "id",
          "type": "uint256"
        },
        {
          "indexed": false,
          "internalType": "string",
          "name": "name",
          "type": "string"
        },
        {
          "indexed": false,
          "internalType": "uint256",
          "name": "price",
          "type": "uint256"
        },
        {
          "indexed": false,
          "internalType": "address",
          "name": "subscriber",
          "type": "address"
        }
      ],
      "name": "EventPurchased",
      "type": "event"
    },
    {
      "anonymous": false,
      "inputs": [
        {
          "indexed": false,
          "internalType": "uint256",
          "name": "id",
          "type": "uint256"
        },
        {
          "indexed": false,
          "internalType": "string",
          "name": "name",
          "type": "string"
        },
        {
          "indexed": false,
          "internalType": "uint256",
          "name": "price",
          "type": "uint256"
        },
        {
          "indexed": false,
          "internalType": "address",
          "name": "owner",
          "type": "address"
        }
      ],
      "name": "EventStarted",
      "type": "event"
    },
    {
      "inputs": [
        {
          "internalType": "string",
          "name": "_name",
          "type": "string"
        },
        {
          "internalType": "string",
          "name": "_description",
          "type": "string"
        },
        {
          "internalType": "uint256",
          "name": "_price",
          "type": "uint256"
        },
        {
          "internalType": "string",
          "name": "_startTime",
          "type": "string"
        },
        {
          "internalType": "string",
          "name": "_endTime",
          "type": "string"
        },
        {
          "internalType": "string",
          "name": "_streamData",
          "type": "string"
        }
      ],
      "name": "createEvent",
      "outputs": [],
      "stateMutability": "nonpayable",
      "type": "function"
    },
    {
      "inputs": [],
      "name": "eventCount",
      "outputs": [
        {
          "internalType": "uint256",
          "name": "",
          "type": "uint256"
        }
      ],
      "stateMutability": "view",
      "type": "function"
    },
    {
      "inputs": [
        {
          "internalType": "uint256",
          "name": "",
          "type": "uint256"
        }
      ],
      "name": "events",
      "outputs": [
        {
          "internalType": "uint256",
          "name": "id",
          "type": "uint256"
        },
        {
          "internalType": "string",
          "name": "name",
          "type": "string"
        },
        {
          "internalType": "string",
          "name": "description",
          "type": "string"
        },
        {
          "internalType": "uint256",
          "name": "price",
          "type": "uint256"
        },
        {
          "internalType": "address",
          "name": "owner",
          "type": "address"
        },
        {
          "internalType": "string",
          "name": "startTime",
          "type": "string"
        },
        {
          "internalType": "string",
          "name": "endTime",
          "type": "string"
        },
        {
          "internalType": "string",
          "name": "streamData",
          "type": "string"
        },
        {
          "internalType": "bool",
          "name": "isStarted",
          "type": "bool"
        }
      ],
      "stateMutability": "view",
      "type": "function"
    },
    {
      "inputs": [
        {
          "internalType": "uint256",
          "name": "_id",
          "type": "uint256"
        }
      ],
      "name": "startEvent",
      "outputs": [],
      "stateMutability": "nonpayable",
      "type": "function"
    },
    {
      "inputs": [
        {
          "internalType": "uint256",
          "name": "_id",
          "type": "uint256"
        }
      ],
      "name": "subscribeEvent",
      "outputs": [],
      "stateMutability": "payable",
      "type": "function"
    },
    {
      "inputs": [
        {
          "internalType": "uint256",
          "name": "",
          "type": "uint256"
        }
      ],
      "name": "subscriberList",
      "outputs": [
        {
          "internalType": "uint256",
          "name": "eventId",
          "type": "uint256"
        },
        {
          "internalType": "address",
          "name": "subscriberAddress",
          "type": "address"
        }
      ],
      "stateMutability": "view",
      "type": "function"
    },
    {
      "inputs": [],
      "name": "subscriberListCount",
      "outputs": [
        {
          "internalType": "uint256",
          "name": "",
          "type": "uint256"
        }
      ],
      "stateMutability": "view",
      "type": "function"
    }
  ],
  "bytecode": "0x608060405273da10009cbd5d07dd0cecc66161fc93d7c9000da16000806101000a816200002b620003d4565b8173ffffffffffffffffffffffffffffffffffffffff021916908373ffffffffffffffffffffffffffffffffffffffff160217906200006962000439565b505050600060016200007a62000439565b5050600060026200008a62000439565b5050348015620000a457600080620000a1620004a0565b50505b5060405162002db838038062002db883398181016040526020811015620000d557600080620000d2620004a0565b50505b81019080805160405193929190846401000000008211156200010157600080620000fe620004a0565b50505b83820191506020820185811115620001235760008062000120620004a0565b50505b82518660018202830111640100000000821117156200014c5760008062000149620004a0565b50505b8083526020830192505050908051906020019080838360005b838110156200018257808201518184015260208101905062000165565b50505050905090810190601f168015620001b05780820380516001836020036101000a031916815260200191505b50604052505050620002036040518060400160405280602081526020017f4465706c6f79696e67206120496d6275652077697468206772656574696e673a815250826200022360201b620020211760201c565b80600590805190602001906200021b92919062000510565b505062000711565b620003998282604051602401808060200180602001838103835285818151815260200191508051906020019080838360005b838110156200027257808201518184015260208101905062000255565b50505050905090810190601f168015620002a05780820380516001836020036101000a031916815260200191505b50838103825284818151815260200191508051906020019080838360005b83811015620002db578082015181840152602081019050620002be565b50505050905090810190601f168015620003095780820380516001836020036101000a031916815260200191505b509450505050506040516020818303038152906040527f4b5c4277000000000000000000000000000000000000000000000000000000007bffffffffffffffffffffffffffffffffffffffffffffffffffffffff19166020820180517bffffffffffffffffffffffffffffffffffffffffffffffffffffffff83818316178352505050506200039d60201b60201c565b5050565b60008151905060006a636f6e736f6c652e6c6f679050602083016000808483855a620003c8620005dc565b50505050505050505050565b6303daa959598160e01b8152836004820152602081602483336000905af158600e01573d6000803e3d6000fd5b3d6001141558600a015760016000f35b8051935060005b6040811015620004345760008183015260208101905062000418565b505050565b6322bd64c0598160e01b8152836004820152846024820152600081604483336000905af158600e01573d6000803e3d6000fd5b3d6001141558600a015760016000f35b60005b60408110156200049b576000818301526020810190506200047f565b505050565b632a2a7adb598160e01b8152600481016020815285602082015260005b86811015620004dd578086015181604084010152602081019050620004bd565b506020828760640184336000905af158600e01573d6000803e3d6000fd5b3d6001141558600a015760016000f35b505050565b82806200051c620003d4565b600181600116156101000203166002900490600052602060002090601f0160209004810192826200055c576000856200055462000439565b5050620005c9565b82601f106200058257805160ff191683800117856200057a62000439565b5050620005c9565b828001600101856200059362000439565b50508215620005c9579182015b82811115620005c857825182620005b662000439565b505091602001919060010190620005a0565b5b509050620005d89190620006e7565b5090565b638540661f598160e01b81526200061e565b60008190508183111562000600578290505b92915050565b60008190508183101562000618578290505b92915050565b836004820152846024820152606060448201528660648201526084810160005b888110156200065b5780880151818301526020810190506200063e565b506060828960a40184336000905af158600e01573d6000803e3d6000fd5b3d6001141558600a015760016000f35b815160408301513d6000853e8b8b82606087013350600060045af15059620006b28d3d62000606565b8c01620006c08187620005ee565b5b82811015620006da5760008152602081019050620006c1565b50839d5050505050505050565b5b808211156200070d576000816000906200070162000439565b505050600101620006e8565b5090565b61269780620007216000396000f3fe6080604052600436106100705760003560e01c80639052d7b91161004e5780639052d7b9146103da578063a59a695314610411578063e237605a1461045e578063f8a1c5811461049257610070565b80630b7914301461007e57806371be2e4a1461032857806383c2eaba1461035c575b60008061007b6121c2565b50505b348015610093576000806100906121c2565b50505b506100c9600480360360208110156100b3576000806100b06121c2565b50505b8101908080359060200190929190505050610859565b604051808a815260200180602001806020018981526020018873ffffffffffffffffffffffffffffffffffffffff168152602001806020018060200180602001871515815260200186810386528e818151815260200191508051906020019080838360005b8381101561014957808201518184015260208101905061012e565b50505050905090810190601f1680156101765780820380516001836020036101000a031916815260200191505b5086810385528d818151815260200191508051906020019080838360005b838110156101af578082015181840152602081019050610194565b50505050905090810190601f1680156101dc5780820380516001836020036101000a031916815260200191505b5086810384528a818151815260200191508051906020019080838360005b838110156102155780820151818401526020810190506101fa565b50505050905090810190601f1680156102425780820380516001836020036101000a031916815260200191505b50868103835289818151815260200191508051906020019080838360005b8381101561027b578082015181840152602081019050610260565b50505050905090810190601f1680156102a85780820380516001836020036101000a031916815260200191505b50868103825288818151815260200191508051906020019080838360005b838110156102e15780820151818401526020810190506102c6565b50505050905090810190601f16801561030e5780820380516001836020036101000a031916815260200191505b509e50505050505050505050505050505060405180910390f35b34801561033d5760008061033a6121c2565b50505b50610346610c74565b6040518082815260200191505060405180910390f35b3480156103715760008061036e6121c2565b50505b506103a7600480360360208110156103915760008061038e6121c2565b50505b8101908080359060200190929190505050610c81565b604051808381526020018273ffffffffffffffffffffffffffffffffffffffff1681526020019250505060405180910390f35b61040f600480360360208110156103f9576000806103f66121c2565b50505b8101908080359060200190929190505050610cd3565b005b348015610426576000806104236121c2565b50505b5061045c60048036036020811015610446576000806104436121c2565b50505b8101908080359060200190929190505050611523565b005b348015610473576000806104706121c2565b50505b5061047c611be3565b6040518082815260200191505060405180910390f35b3480156104a7576000806104a46121c2565b50505b50610857600480360360c08110156104c7576000806104c46121c2565b50505b81019080803590602001906401000000008111156104ed576000806104ea6121c2565b50505b820183602082011115610508576000806105056121c2565b50505b80359060200191846001830284011164010000000083111715610533576000806105306121c2565b50505b91908080601f016020809104026020016040519081016040528093929190818152602001838380828437600081840152601f19601f8201169050808301925050505050505091929192908035906020019064010000000081111561059f5760008061059c6121c2565b50505b8201836020820111156105ba576000806105b76121c2565b50505b803590602001918460018302840111640100000000831117156105e5576000806105e26121c2565b50505b91908080601f016020809104026020016040519081016040528093929190818152602001838380828437600081840152601f19601f820116905080830192505050505050509192919290803590602001909291908035906020019064010000000081111561065b576000806106586121c2565b50505b820183602082011115610676576000806106736121c2565b50505b803590602001918460018302840111640100000000831117156106a15760008061069e6121c2565b50505b91908080601f016020809104026020016040519081016040528093929190818152602001838380828437600081840152601f19601f8201169050808301925050505050505091929192908035906020019064010000000081111561070d5760008061070a6121c2565b50505b820183602082011115610728576000806107256121c2565b50505b80359060200191846001830284011164010000000083111715610753576000806107506121c2565b50505b91908080601f016020809104026020016040519081016040528093929190818152602001838380828437600081840152601f19601f820116905080830192505050505050509192919290803590602001906401000000008111156107bf576000806107bc6121c2565b50505b8201836020820111156107da576000806107d76121c2565b50505b80359060200191846001830284011164010000000083111715610805576000806108026121c2565b50505b91908080601f016020809104026020016040519081016040528093929190818152602001838380828437600081840152601f19601f820116905080830192505050505050509192919290505050611bf0565b005b600360205280600052604060002060009150905080600001610879612230565b908060010180610887612230565b600181600116156101000203166002900480601f016020809104026020016040519081016040528092919081815260200182806108c2612230565b6001816001161561010002031660029004801561092e5780601f106108fc5761010080836108ee612230565b04028352916020019161092e565b820191906000526020600020905b81610913612230565b8152906001019060200180831161090a57829003601f168201915b5050505050908060020180610941612230565b600181600116156101000203166002900480601f0160208091040260200160405190810160405280929190818152602001828061097c612230565b600181600116156101000203166002900480156109e85780601f106109b65761010080836109a8612230565b0402835291602001916109e8565b820191906000526020600020905b816109cd612230565b815290600101906020018083116109c457829003601f168201915b505050505090806003016109fa612230565b9080600401600090610a0a612230565b906101000a900473ffffffffffffffffffffffffffffffffffffffff16908060050180610a35612230565b600181600116156101000203166002900480601f01602080910402602001604051908101604052809291908181526020018280610a70612230565b60018160011615610100020316600290048015610adc5780601f10610aaa576101008083610a9c612230565b040283529160200191610adc565b820191906000526020600020905b81610ac1612230565b81529060010190602001808311610ab857829003601f168201915b5050505050908060060180610aef612230565b600181600116156101000203166002900480601f01602080910402602001604051908101604052809291908181526020018280610b2a612230565b60018160011615610100020316600290048015610b965780601f10610b64576101008083610b56612230565b040283529160200191610b96565b820191906000526020600020905b81610b7b612230565b81529060010190602001808311610b7257829003601f168201915b5050505050908060070180610ba9612230565b600181600116156101000203166002900480601f01602080910402602001604051908101604052809291908181526020018280610be4612230565b60018160011615610100020316600290048015610c505780601f10610c1e576101008083610c10612230565b040283529160200191610c50565b820191906000526020600020905b81610c35612230565b81529060010190602001808311610c2c57829003601f168201915b50505050509080600801600090610c65612230565b906101000a900460ff16905089565b6001610c7e612230565b81565b600460205280600052604060002060009150905080600001610ca1612230565b9080600101600090610cb1612230565b906101000a900473ffffffffffffffffffffffffffffffffffffffff16905082565b6000600360008381526020019081526020016000209050600081600401600090610cfb612230565b906101000a900473ffffffffffffffffffffffffffffffffffffffff169050600082600001610d28612230565b118015610d4957506001610d3a612230565b82600001610d46612230565b11155b610d5b57600080610d586121c2565b50505b5a610d64612293565b73ffffffffffffffffffffffffffffffffffffffff168173ffffffffffffffffffffffffffffffffffffffff161415610da557600080610da26121c2565b50505b6000805b6002610db3612230565b811015610e71578460046000838152602001908152602001600020600001610dd9612230565b148015610e5657505a610dea612293565b73ffffffffffffffffffffffffffffffffffffffff1660046000838152602001908152602001600020600101600090610e21612230565b906101000a900473ffffffffffffffffffffffffffffffffffffffff1673ffffffffffffffffffffffffffffffffffffffff16145b15610e645760019150610e71565b8080600101915050610da9565b506000151581151514610e8c57600080610e896121c2565b50505b600080600090610e9a612230565b906101000a900473ffffffffffffffffffffffffffffffffffffffff1673ffffffffffffffffffffffffffffffffffffffff1663dd62ed3e5a610edb612293565b5a63996d79a5598160e01b8152602081600483336000905af158600e01573d6000803e3d6000fd5b3d6001141558600a015760016000f35b8051925060005b6040811015610f3457600081830152602081019050610f1a565b5050506040518363ffffffff1660e01b8152600401808373ffffffffffffffffffffffffffffffffffffffff1681526020018273ffffffffffffffffffffffffffffffffffffffff168152602001925050506020604051808303818680610f996122f0565b158015610fae57600080610fab6121c2565b50505b505a610fb8612353565b5050505050158015610fd7573d6000803e3d6000610fd46121c2565b50505b505050506040513d6020811015610ff657600080610ff36121c2565b50505b8101908080519060200190929190505050905083600301611015612230565b811015611093576040517f08c379a00000000000000000000000000000000000000000000000000000000081526004018080602001828103825260178152602001807f436865636b207468652044616920616c6c6f77616e6365000000000000000000815250602001915050604051809103906110906121c2565b50505b60008061109e612230565b906101000a900473ffffffffffffffffffffffffffffffffffffffff1673ffffffffffffffffffffffffffffffffffffffff1663095ea7b35a63996d79a5598160e01b8152602081600483336000905af158600e01573d6000803e3d6000fd5b3d6001141558600a015760016000f35b8051925060005b604081101561112f57600081830152602081019050611115565b505050836040518363ffffffff1660e01b8152600401808373ffffffffffffffffffffffffffffffffffffffff16815260200182815260200192505050602060405180830381600087806111816122f0565b158015611196576000806111936121c2565b50505b505a6111a0612453565b5050505050501580156111c0573d6000803e3d60006111bd6121c2565b50505b505050506040513d60208110156111df576000806111dc6121c2565b50505b8101908080519060200190929190505050506000806111fc612230565b906101000a900473ffffffffffffffffffffffffffffffffffffffff1673ffffffffffffffffffffffffffffffffffffffff166323b872dd5a61123d612293565b858760030161124a612230565b6040518463ffffffff1660e01b8152600401808473ffffffffffffffffffffffffffffffffffffffff1681526020018373ffffffffffffffffffffffffffffffffffffffff1681526020018281526020019350505050602060405180830381600087806112b56122f0565b1580156112ca576000806112c76121c2565b50505b505a6112d4612453565b5050505050501580156112f4573d6000803e3d60006112f16121c2565b50505b505050506040513d6020811015611313576000806113106121c2565b50505b8101908080519060200190929190505050506002600081611332612230565b80929190600101919050611344612553565b50505060405180604001604052808681526020015a611361612293565b73ffffffffffffffffffffffffffffffffffffffff16815250600460006002611388612230565b81526020019081526020016000206000820151816000016113a7612553565b505060208201518160010160006101000a816113c1612230565b8173ffffffffffffffffffffffffffffffffffffffff021916908373ffffffffffffffffffffffffffffffffffffffff160217906113fd612553565b5050509050507ffb73ef0628e895c892e317e9eed0d0be12de1455b9f47886c632582274339c34858560010186600301611435612230565b5a61143e612293565b60405180858152602001806020018481526020018373ffffffffffffffffffffffffffffffffffffffff168152602001828103825285818161147e612230565b6001816001161561010002031660029004815260200191508061149f612230565b6001816001161561010002031660029004801561150b5780601f106114d95761010080836114cb612230565b04028352916020019161150b565b820191906000526020600020905b816114f0612230565b815290600101906020018083116114e757829003601f168201915b50509550505050505060405180910390a15050505050565b6000600360008381526020019081526020016000206040518061012001604052908160008201611551612230565b81526020016001820180611563612230565b600181600116156101000203166002900480601f0160208091040260200160405190810160405280929190818152602001828061159e612230565b6001816001161561010002031660029004801561160a5780601f106115d85761010080836115ca612230565b04028352916020019161160a565b820191906000526020600020905b816115ef612230565b815290600101906020018083116115e657829003601f168201915b505050505081526020016002820180611621612230565b600181600116156101000203166002900480601f0160208091040260200160405190810160405280929190818152602001828061165c612230565b600181600116156101000203166002900480156116c85780601f10611696576101008083611688612230565b0402835291602001916116c8565b820191906000526020600020905b816116ad612230565b815290600101906020018083116116a457829003601f168201915b50505050508152602001600382016116de612230565b8152602001600482016000906116f2612230565b906101000a900473ffffffffffffffffffffffffffffffffffffffff1673ffffffffffffffffffffffffffffffffffffffff1673ffffffffffffffffffffffffffffffffffffffff168152602001600582018061174d612230565b600181600116156101000203166002900480601f01602080910402602001604051908101604052809291908181526020018280611788612230565b600181600116156101000203166002900480156117f45780601f106117c25761010080836117b4612230565b0402835291602001916117f4565b820191906000526020600020905b816117d9612230565b815290600101906020018083116117d057829003601f168201915b50505050508152602001600682018061180b612230565b600181600116156101000203166002900480601f01602080910402602001604051908101604052809291908181526020018280611846612230565b600181600116156101000203166002900480156118b25780601f10611880576101008083611872612230565b0402835291602001916118b2565b820191906000526020600020905b81611897612230565b8152906001019060200180831161188e57829003601f168201915b5050505050815260200160078201806118c9612230565b600181600116156101000203166002900480601f01602080910402602001604051908101604052809291908181526020018280611904612230565b600181600116156101000203166002900480156119705780601f1061193e576101008083611930612230565b040283529160200191611970565b820191906000526020600020905b81611955612230565b8152906001019060200180831161194c57829003601f168201915b5050505050815260200160088201600090611989612230565b906101000a900460ff161515151581525050905060018161010001901515908115158152505080600360008481526020019081526020016000206000820151816000016119d4612553565b505060208201518160010190805190602001906119f29291906125b8565b506040820151816002019080519060200190611a0f9291906125b8565b50606082015181600301611a21612553565b505060808201518160040160006101000a81611a3b612230565b8173ffffffffffffffffffffffffffffffffffffffff021916908373ffffffffffffffffffffffffffffffffffffffff16021790611a77612553565b50505060a0820151816005019080519060200190611a969291906125b8565b5060c0820151816006019080519060200190611ab39291906125b8565b5060e0820151816007019080519060200190611ad09291906125b8565b506101008201518160080160006101000a81611aea612230565b8160ff02191690831515021790611aff612553565b5050509050507f3ff0f2c812fe8e5eed38c0bc2cd0a4589aa7c1eb7ead1909859c7a573ae8b5df82826020015183606001515a611b3a612293565b60405180858152602001806020018481526020018373ffffffffffffffffffffffffffffffffffffffff168152602001828103825285818151815260200191508051906020019080838360005b83811015611ba2578082015181840152602081019050611b87565b50505050905090810190601f168015611bcf5780820380516001836020036101000a031916815260200191505b509550505050505060405180910390a15050565b6002611bed612230565b81565b6000865111611c0757600080611c046121c2565b50505b6000855111611c1e57600080611c1b6121c2565b50505b6000841015611c3557600080611c326121c2565b50505b6000835111611c4c57600080611c496121c2565b50505b6000825111611c6357600080611c606121c2565b50505b6000815111611c7a57600080611c776121c2565b50505b6001600081611c87612230565b80929190600101919050611c99612553565b5050506040518061012001604052806001611cb2612230565b81526020018781526020018681526020018581526020015a611cd2612293565b73ffffffffffffffffffffffffffffffffffffffff16815260200184815260200183815260200182815260200160001515815250600360006001611d14612230565b8152602001908152602001600020600082015181600001611d33612553565b50506020820151816001019080519060200190611d519291906125b8565b506040820151816002019080519060200190611d6e9291906125b8565b50606082015181600301611d80612553565b505060808201518160040160006101000a81611d9a612230565b8173ffffffffffffffffffffffffffffffffffffffff021916908373ffffffffffffffffffffffffffffffffffffffff16021790611dd6612553565b50505060a0820151816005019080519060200190611df59291906125b8565b5060c0820151816006019080519060200190611e129291906125b8565b5060e0820151816007019080519060200190611e2f9291906125b8565b506101008201518160080160006101000a81611e49612230565b8160ff02191690831515021790611e5e612553565b5050509050507fe8d0c29fa5766052570230dd96d84c686487ba683c76c1567f1917262c6734836001611e8f612230565b878686865a611e9c612293565b604051808781526020018060200186815260200180602001806020018573ffffffffffffffffffffffffffffffffffffffff168152602001848103845289818151815260200191508051906020019080838360005b83811015611f0c578082015181840152602081019050611ef1565b50505050905090810190601f168015611f395780820380516001836020036101000a031916815260200191505b50848103835287818151815260200191508051906020019080838360005b83811015611f72578082015181840152602081019050611f57565b50505050905090810190601f168015611f9f5780820380516001836020036101000a031916815260200191505b50848103825286818151815260200191508051906020019080838360005b83811015611fd8578082015181840152602081019050611fbd565b50505050905090810190601f1680156120055780820380516001836020036101000a031916815260200191505b50995050505050505050505060405180910390a1505050505050565b6121898282604051602401808060200180602001838103835285818151815260200191508051906020019080838360005b8381101561206d578082015181840152602081019050612052565b50505050905090810190601f16801561209a5780820380516001836020036101000a031916815260200191505b50838103825284818151815260200191508051906020019080838360005b838110156120d35780820151818401526020810190506120b8565b50505050905090810190601f1680156121005780820380516001836020036101000a031916815260200191505b509450505050506040516020818303038152906040527f4b5c4277000000000000000000000000000000000000000000000000000000007bffffffffffffffffffffffffffffffffffffffffffffffffffffffff19166020820180517bffffffffffffffffffffffffffffffffffffffffffffffffffffffff838183161783525050505061218d565b5050565b60008151905060006a636f6e736f6c652e6c6f679050602083016000808483855a6121b6612353565b50505050505050505050565b632a2a7adb598160e01b8152600481016020815285602082015260005b868110156121fd5780860151816040840101526020810190506121df565b506020828760640184336000905af158600e01573d6000803e3d6000fd5b3d6001141558600a015760016000f35b505050565b6303daa959598160e01b8152836004820152602081602483336000905af158600e01573d6000803e3d6000fd5b3d6001141558600a015760016000f35b8051935060005b604081101561228e57600081830152602081019050612274565b505050565b6373509064598160e01b8152602081600483336000905af158600e01573d6000803e3d6000fd5b3d6001141558600a015760016000f35b8051935060005b60408110156122eb576000818301526020810190506122d1565b505050565b638435035b598160e01b8152836004820152602081602483336000905af158600e01573d6000803e3d6000fd5b3d6001141558600a015760016000f35b8051935060005b604081101561234e57600081830152602081019050612334565b505050565b638540661f598160e01b8152612392565b600081905081831115612375578290505b92915050565b60008190508183101561238c578290505b92915050565b836004820152846024820152606060448201528660648201526084810160005b888110156123cd5780880151818301526020810190506123b2565b506060828960a40184336000905af158600e01573d6000803e3d6000fd5b3d6001141558600a015760016000f35b815160408301513d6000853e8b8b82606087013350600060045af150596124228d3d61237b565b8c0161242e8187612364565b5b82811015612446576000815260208101905061242f565b50839d5050505050505050565b6385979f76598160e01b8152612492565b600081905081831115612475578290505b92915050565b60008190508183101561248c578290505b92915050565b836004820152846024820152606060448201528760648201526084810160005b898110156124cd5780890151818301526020810190506124b2565b506060828a60a40184336000905af158600e01573d6000803e3d6000fd5b3d6001141558600a015760016000f35b815160408301513d6000853e8c8c82606087013350600060045af150596125228e3d61247b565b8d0161252e8187612464565b5b82811015612546576000815260208101905061252f565b50839e5050505050505050565b6322bd64c0598160e01b8152836004820152846024820152600081604483336000905af158600e01573d6000803e3d6000fd5b3d6001141558600a015760016000f35b60005b60408110156125b357600081830152602081019050612599565b505050565b82806125c2612230565b600181600116156101000203166002900490600052602060002090601f0160209004810192826125fe576000856125f7612553565b5050612660565b82601f1061262057805160ff19168380011785612619612553565b5050612660565b8280016001018561262f612553565b50508215612660579182015b8281111561265f5782518261264e612553565b50509160200191906001019061263b565b5b50905061266d9190612671565b5090565b5b8082111561269357600081600090612688612553565b505050600101612672565b509056",
  "linkReferences": {},
  "deployedLinkReferences": {}
}