{
  "contractName": "ImbuEvents",
  "abi": [
    {
      "inputs": [],
      "payable": false,
      "stateMutability": "nonpayable",
      "type": "constructor"
    },
    {
      "anonymous": false,
      "inputs": [
        {
          "indexed": false,
          "internalType": "uint256",
          "name": "id",
          "type": "uint256"
        },
        {
          "indexed": false,
          "internalType": "string",
          "name": "name",
          "type": "string"
        },
        {
          "indexed": false,
          "internalType": "uint256",
          "name": "price",
          "type": "uint256"
        },
        {
          "indexed": false,
          "internalType": "string",
          "name": "startTime",
          "type": "string"
        },
        {
          "indexed": false,
          "internalType": "string",
          "name": "endTime",
          "type": "string"
        },
        {
          "indexed": false,
          "internalType": "address payable",
          "name": "owner",
          "type": "address"
        }
      ],
      "name": "EventCreated",
      "type": "event"
    },
    {
      "anonymous": false,
      "inputs": [
        {
          "indexed": false,
          "internalType": "uint256",
          "name": "id",
          "type": "uint256"
        },
        {
          "indexed": false,
          "internalType": "string",
          "name": "name",
          "type": "string"
        },
        {
          "indexed": false,
          "internalType": "uint256",
          "name": "price",
          "type": "uint256"
        },
        {
          "indexed": false,
          "internalType": "address payable",
          "name": "subscriber",
          "type": "address"
        }
      ],
      "name": "EventPurchased",
      "type": "event"
    },
    {
      "anonymous": false,
      "inputs": [
        {
          "indexed": false,
          "internalType": "uint256",
          "name": "id",
          "type": "uint256"
        },
        {
          "indexed": false,
          "internalType": "string",
          "name": "name",
          "type": "string"
        },
        {
          "indexed": false,
          "internalType": "uint256",
          "name": "price",
          "type": "uint256"
        },
        {
          "indexed": false,
          "internalType": "address payable",
          "name": "owner",
          "type": "address"
        }
      ],
      "name": "EventStarted",
      "type": "event"
    },
    {
      "constant": true,
      "inputs": [],
      "name": "eventCount",
      "outputs": [
        {
          "internalType": "uint256",
          "name": "",
          "type": "uint256"
        }
      ],
      "payable": false,
      "stateMutability": "view",
      "type": "function"
    },
    {
      "constant": true,
      "inputs": [
        {
          "internalType": "uint256",
          "name": "",
          "type": "uint256"
        }
      ],
      "name": "events",
      "outputs": [
        {
          "internalType": "uint256",
          "name": "id",
          "type": "uint256"
        },
        {
          "internalType": "string",
          "name": "name",
          "type": "string"
        },
        {
          "internalType": "uint256",
          "name": "price",
          "type": "uint256"
        },
        {
          "internalType": "address payable",
          "name": "owner",
          "type": "address"
        },
        {
          "internalType": "uint256",
          "name": "subscriberCounts",
          "type": "uint256"
        },
        {
          "internalType": "string",
          "name": "startTime",
          "type": "string"
        },
        {
          "internalType": "string",
          "name": "endTime",
          "type": "string"
        },
        {
          "internalType": "bool",
          "name": "isStarted",
          "type": "bool"
        }
      ],
      "payable": false,
      "stateMutability": "view",
      "type": "function"
    },
    {
      "constant": true,
      "inputs": [],
      "name": "name",
      "outputs": [
        {
          "internalType": "string",
          "name": "",
          "type": "string"
        }
      ],
      "payable": false,
      "stateMutability": "view",
      "type": "function"
    },
    {
      "constant": false,
      "inputs": [
        {
          "internalType": "string",
          "name": "_name",
          "type": "string"
        },
        {
          "internalType": "uint256",
          "name": "_price",
          "type": "uint256"
        },
        {
          "internalType": "string",
          "name": "_startTime",
          "type": "string"
        },
        {
          "internalType": "string",
          "name": "_endTime",
          "type": "string"
        }
      ],
      "name": "createEvent",
      "outputs": [],
      "payable": false,
      "stateMutability": "nonpayable",
      "type": "function"
    },
    {
      "constant": false,
      "inputs": [
        {
          "internalType": "uint256",
          "name": "_id",
          "type": "uint256"
        }
      ],
      "name": "subscribeEvent",
      "outputs": [],
      "payable": true,
      "stateMutability": "payable",
      "type": "function"
    },
    {
      "constant": false,
      "inputs": [
        {
          "internalType": "uint256",
          "name": "_id",
          "type": "uint256"
        }
      ],
      "name": "startEvent",
      "outputs": [],
      "payable": false,
      "stateMutability": "nonpayable",
      "type": "function"
    }
  ],
  "bytecode": "0x608060405260006001553480156200001657600080fd5b506040518060400160405280600b81526020017f496d6275204576656e747300000000000000000000000000000000000000000081525060009080519060200190620000649291906200006b565b506200011a565b828054600181600116156101000203166002900490600052602060002090601f016020900481019282601f10620000ae57805160ff1916838001178555620000df565b82800160010185558215620000df579182015b82811115620000de578251825591602001919060010190620000c1565b5b509050620000ee9190620000f2565b5090565b6200011791905b8082111562000113576000816000905550600101620000f9565b5090565b90565b611974806200012a6000396000f3fe6080604052600436106100555760003560e01c806306fdde031461005a5780630b791430146100ea57806371be2e4a146102c95780639052d7b9146102f4578063a59a695314610322578063a72062021461035d575b600080fd5b34801561006657600080fd5b5061006f61055d565b6040518080602001828103825283818151815260200191508051906020019080838360005b838110156100af578082015181840152602081019050610094565b50505050905090810190601f1680156100dc5780820380516001836020036101000a031916815260200191505b509250505060405180910390f35b3480156100f657600080fd5b506101236004803603602081101561010d57600080fd5b81019080803590602001909291905050506105fb565b60405180898152602001806020018881526020018773ffffffffffffffffffffffffffffffffffffffff1673ffffffffffffffffffffffffffffffffffffffff16815260200186815260200180602001806020018515151515815260200184810384528b818151815260200191508051906020019080838360005b838110156101b957808201518184015260208101905061019e565b50505050905090810190601f1680156101e65780820380516001836020036101000a031916815260200191505b50848103835287818151815260200191508051906020019080838360005b8381101561021f578082015181840152602081019050610204565b50505050905090810190601f16801561024c5780820380516001836020036101000a031916815260200191505b50848103825286818151815260200191508051906020019080838360005b8381101561028557808201518184015260208101905061026a565b50505050905090810190601f1680156102b25780820380516001836020036101000a031916815260200191505b509b50505050505050505050505060405180910390f35b3480156102d557600080fd5b506102de610838565b6040518082815260200191505060405180910390f35b6103206004803603602081101561030a57600080fd5b810190808035906020019092919050505061083e565b005b34801561032e57600080fd5b5061035b6004803603602081101561034557600080fd5b8101908080359060200190929190505050610e84565b005b34801561036957600080fd5b5061055b6004803603608081101561038057600080fd5b810190808035906020019064010000000081111561039d57600080fd5b8201836020820111156103af57600080fd5b803590602001918460018302840111640100000000831117156103d157600080fd5b91908080601f016020809104026020016040519081016040528093929190818152602001838380828437600081840152601f19601f820116905080830192505050505050509192919290803590602001909291908035906020019064010000000081111561043e57600080fd5b82018360208201111561045057600080fd5b8035906020019184600183028401116401000000008311171561047257600080fd5b91908080601f016020809104026020016040519081016040528093929190818152602001838380828437600081840152601f19601f820116905080830192505050505050509192919290803590602001906401000000008111156104d557600080fd5b8201836020820111156104e757600080fd5b8035906020019184600183028401116401000000008311171561050957600080fd5b91908080601f016020809104026020016040519081016040528093929190818152602001838380828437600081840152601f19601f8201169050808301925050505050505091929192905050506113bf565b005b60008054600181600116156101000203166002900480601f0160208091040260200160405190810160405280929190818152602001828054600181600116156101000203166002900480156105f35780601f106105c8576101008083540402835291602001916105f3565b820191906000526020600020905b8154815290600101906020018083116105d657829003601f168201915b505050505081565b6002602052806000526040600020600091509050806000015490806001018054600181600116156101000203166002900480601f0160208091040260200160405190810160405280929190818152602001828054600181600116156101000203166002900480156106ad5780601f10610682576101008083540402835291602001916106ad565b820191906000526020600020905b81548152906001019060200180831161069057829003601f168201915b5050505050908060020154908060030160009054906101000a900473ffffffffffffffffffffffffffffffffffffffff1690806005015490806006018054600181600116156101000203166002900480601f01602080910402602001604051908101604052809291908181526020018280546001816001161561010002031660029004801561077d5780601f106107525761010080835404028352916020019161077d565b820191906000526020600020905b81548152906001019060200180831161076057829003601f168201915b505050505090806007018054600181600116156101000203166002900480601f01602080910402602001604051908101604052809291908181526020018280546001816001161561010002031660029004801561081b5780601f106107f05761010080835404028352916020019161081b565b820191906000526020600020905b8154815290600101906020018083116107fe57829003601f168201915b5050505050908060080160009054906101000a900460ff16905088565b60015481565b610846611769565b600260008381526020019081526020016000206040518061012001604052908160008201548152602001600182018054600181600116156101000203166002900480601f0160208091040260200160405190810160405280929190818152602001828054600181600116156101000203166002900480156109085780601f106108dd57610100808354040283529160200191610908565b820191906000526020600020905b8154815290600101906020018083116108eb57829003601f168201915b50505050508152602001600282015481526020016003820160009054906101000a900473ffffffffffffffffffffffffffffffffffffffff1673ffffffffffffffffffffffffffffffffffffffff1673ffffffffffffffffffffffffffffffffffffffff168152602001600482018054806020026020016040519081016040528092919081815260200182805480156109f657602002820191906000526020600020905b8160009054906101000a900473ffffffffffffffffffffffffffffffffffffffff1673ffffffffffffffffffffffffffffffffffffffff16815260200190600101908083116109ac575b5050505050815260200160058201548152602001600682018054600181600116156101000203166002900480601f016020809104026020016040519081016040528092919081815260200182805460018160011615610100020316600290048015610aa25780601f10610a7757610100808354040283529160200191610aa2565b820191906000526020600020905b815481529060010190602001808311610a8557829003601f168201915b50505050508152602001600782018054600181600116156101000203166002900480601f016020809104026020016040519081016040528092919081815260200182805460018160011615610100020316600290048015610b445780601f10610b1957610100808354040283529160200191610b44565b820191906000526020600020905b815481529060010190602001808311610b2757829003601f168201915b505050505081526020016008820160009054906101000a900460ff161515151581525050905060008160600151905060008260000151118015610b8d5750600154826000015111155b610b9657600080fd5b8160400151341015610ba757600080fd5b3373ffffffffffffffffffffffffffffffffffffffff168173ffffffffffffffffffffffffffffffffffffffff161415610be057600080fd5b8160a0018051809190600101815250503382608001518360a0015181518110610c0557fe5b602002602001019073ffffffffffffffffffffffffffffffffffffffff16908173ffffffffffffffffffffffffffffffffffffffff16815250508160026000858152602001908152602001600020600082015181600001556020820151816001019080519060200190610c799291906117cd565b506040820151816002015560608201518160030160006101000a81548173ffffffffffffffffffffffffffffffffffffffff021916908373ffffffffffffffffffffffffffffffffffffffff1602179055506080820151816004019080519060200190610ce792919061184d565b5060a0820151816005015560c0820151816006019080519060200190610d0e9291906117cd565b5060e0820151816007019080519060200190610d2b9291906117cd565b506101008201518160080160006101000a81548160ff0219169083151502179055509050508073ffffffffffffffffffffffffffffffffffffffff166108fc349081150290604051600060405180830381858888f19350505050158015610d96573d6000803e3d6000fd5b507ffb73ef0628e895c892e317e9eed0d0be12de1455b9f47886c632582274339c3483836020015184604001513360405180858152602001806020018481526020018373ffffffffffffffffffffffffffffffffffffffff1673ffffffffffffffffffffffffffffffffffffffff168152602001828103825285818151815260200191508051906020019080838360005b83811015610e42578082015181840152602081019050610e27565b50505050905090810190601f168015610e6f5780820380516001836020036101000a031916815260200191505b509550505050505060405180910390a1505050565b610e8c611769565b600260008381526020019081526020016000206040518061012001604052908160008201548152602001600182018054600181600116156101000203166002900480601f016020809104026020016040519081016040528092919081815260200182805460018160011615610100020316600290048015610f4e5780601f10610f2357610100808354040283529160200191610f4e565b820191906000526020600020905b815481529060010190602001808311610f3157829003601f168201915b50505050508152602001600282015481526020016003820160009054906101000a900473ffffffffffffffffffffffffffffffffffffffff1673ffffffffffffffffffffffffffffffffffffffff1673ffffffffffffffffffffffffffffffffffffffff1681526020016004820180548060200260200160405190810160405280929190818152602001828054801561103c57602002820191906000526020600020905b8160009054906101000a900473ffffffffffffffffffffffffffffffffffffffff1673ffffffffffffffffffffffffffffffffffffffff1681526020019060010190808311610ff2575b5050505050815260200160058201548152602001600682018054600181600116156101000203166002900480601f0160208091040260200160405190810160405280929190818152602001828054600181600116156101000203166002900480156110e85780601f106110bd576101008083540402835291602001916110e8565b820191906000526020600020905b8154815290600101906020018083116110cb57829003601f168201915b50505050508152602001600782018054600181600116156101000203166002900480601f01602080910402602001604051908101604052809291908181526020018280546001816001161561010002031660029004801561118a5780601f1061115f5761010080835404028352916020019161118a565b820191906000526020600020905b81548152906001019060200180831161116d57829003601f168201915b505050505081526020016008820160009054906101000a900460ff161515151581525050905060018161010001901515908115158152505080600260008481526020019081526020016000206000820151816000015560208201518160010190805190602001906111fc9291906117cd565b506040820151816002015560608201518160030160006101000a81548173ffffffffffffffffffffffffffffffffffffffff021916908373ffffffffffffffffffffffffffffffffffffffff160217905550608082015181600401908051906020019061126a92919061184d565b5060a0820151816005015560c08201518160060190805190602001906112919291906117cd565b5060e08201518160070190805190602001906112ae9291906117cd565b506101008201518160080160006101000a81548160ff0219169083151502179055509050507f3ff0f2c812fe8e5eed38c0bc2cd0a4589aa7c1eb7ead1909859c7a573ae8b5df82826020015183604001513360405180858152602001806020018481526020018373ffffffffffffffffffffffffffffffffffffffff1673ffffffffffffffffffffffffffffffffffffffff168152602001828103825285818151815260200191508051906020019080838360005b8381101561137e578082015181840152602081019050611363565b50505050905090810190601f1680156113ab5780820380516001836020036101000a031916815260200191505b509550505050505060405180910390a15050565b60008451116113cd57600080fd5b60008310156113db57600080fd5b60008251116113e957600080fd5b60008151116113f757600080fd5b60016000815480929190600101919050555060405180610120016040528060015481526020018581526020018481526020013373ffffffffffffffffffffffffffffffffffffffff16815260200160006040519080825280602002602001820160405280156114755781602001602082028038833980820191505090505b50815260200160008152602001838152602001828152602001600015158152506002600060015481526020019081526020016000206000820151816000015560208201518160010190805190602001906114d09291906117cd565b506040820151816002015560608201518160030160006101000a81548173ffffffffffffffffffffffffffffffffffffffff021916908373ffffffffffffffffffffffffffffffffffffffff160217905550608082015181600401908051906020019061153e92919061184d565b5060a0820151816005015560c08201518160060190805190602001906115659291906117cd565b5060e08201518160070190805190602001906115829291906117cd565b506101008201518160080160006101000a81548160ff0219169083151502179055509050507fe8d0c29fa5766052570230dd96d84c686487ba683c76c1567f1917262c6734836001548585858533604051808781526020018060200186815260200180602001806020018573ffffffffffffffffffffffffffffffffffffffff1673ffffffffffffffffffffffffffffffffffffffff168152602001848103845289818151815260200191508051906020019080838360005b8381101561165657808201518184015260208101905061163b565b50505050905090810190601f1680156116835780820380516001836020036101000a031916815260200191505b50848103835287818151815260200191508051906020019080838360005b838110156116bc5780820151818401526020810190506116a1565b50505050905090810190601f1680156116e95780820380516001836020036101000a031916815260200191505b50848103825286818151815260200191508051906020019080838360005b83811015611722578082015181840152602081019050611707565b50505050905090810190601f16801561174f5780820380516001836020036101000a031916815260200191505b50995050505050505050505060405180910390a150505050565b604051806101200160405280600081526020016060815260200160008152602001600073ffffffffffffffffffffffffffffffffffffffff168152602001606081526020016000815260200160608152602001606081526020016000151581525090565b828054600181600116156101000203166002900490600052602060002090601f016020900481019282601f1061180e57805160ff191683800117855561183c565b8280016001018555821561183c579182015b8281111561183b578251825591602001919060010190611820565b5b50905061184991906118d7565b5090565b8280548282559060005260206000209081019282156118c6579160200282015b828111156118c55782518260006101000a81548173ffffffffffffffffffffffffffffffffffffffff021916908373ffffffffffffffffffffffffffffffffffffffff1602179055509160200191906001019061186d565b5b5090506118d391906118fc565b5090565b6118f991905b808211156118f55760008160009055506001016118dd565b5090565b90565b61193c91905b8082111561193857600081816101000a81549073ffffffffffffffffffffffffffffffffffffffff021916905550600101611902565b5090565b9056fea265627a7a7231582099b435fe9591b387b0c706f3c3b4e5befce8ba853d7e8490eb8bc41d99ecdde864736f6c63430005100032",
  "source": "pragma solidity ^0.5.0;\r\n\r\ncontract ImbuEvents {\r\n  string public name;\r\n  uint public eventCount = 0;\r\n  mapping(uint => Event) public events;\r\n\r\n  struct Event {\r\n    uint id;\r\n    string name;\r\n    uint price;\r\n    address payable owner;\r\n    address[] subscribers;\r\n    uint subscriberCounts;\r\n    string startTime;\r\n    string endTime;\r\n    bool isStarted;\r\n  }\r\n\r\n  event EventCreated(\r\n    uint id,\r\n    string name,\r\n    uint price,\r\n    string startTime,\r\n    string endTime,\r\n    address payable owner\r\n  );\r\n\r\n  event EventPurchased(\r\n    uint id,\r\n    string name,\r\n    uint price,\r\n    address payable subscriber\r\n  );\r\n\r\n  event EventStarted(\r\n    uint id,\r\n    string name,\r\n    uint price,\r\n    address payable owner\r\n  );\r\n\r\n  constructor() public {\r\n    name = \"Imbu Events\";\r\n  }\r\n\r\n  function createEvent(string memory _name, uint _price, string memory _startTime, string memory _endTime) public {\r\n    require(bytes(_name).length > 0);\r\n    require(_price >= 0);\r\n    require(bytes(_startTime).length > 0);\r\n    require(bytes(_endTime).length > 0);\r\n    eventCount ++;\r\n    events[eventCount] = Event(eventCount, _name, _price, msg.sender, new address[](0), 0, _startTime, _endTime, false);\r\n\r\n    emit EventCreated(eventCount, _name, _price, _startTime, _endTime, msg.sender);\r\n  }\r\n\r\n  function subscribeEvent(uint _id) public payable {\r\n    // Get the event\r\n    Event memory _event = events[_id];\r\n    // Get the owner\r\n    address payable _owner = _event.owner;\r\n    // Validation id, enough Ether, \r\n    require(_event.id > 0 && _event.id <= eventCount);\r\n    // Require that there is enough Ether in the transaction\r\n    require(msg.value >= _event.price);\r\n    // Require that the buyer is not the event owner\r\n    require(_owner != msg.sender);\r\n    // Add address to subscribers\r\n    _event.subscriberCounts++;\r\n    _event.subscribers[_event.subscriberCounts] = msg.sender;\r\n    // Update the event\r\n    events[_id] = _event;\r\n    // Pay the owner by sending them Ether\r\n    address(_owner).transfer(msg.value);\r\n\r\n    emit EventPurchased(_id, _event.name, _event.price, msg.sender);\r\n  }\r\n\r\n  function startEvent(uint _id) public {\r\n    Event memory _event = events[_id];\r\n    _event.isStarted = true;\r\n    events[_id] = _event;\r\n\r\n    emit EventStarted(_id, _event.name, _event.price, msg.sender);\r\n  }\r\n  \r\n}\r\n",
  "sourcePath": "D:\\Projects\\Blockchain\\imbueworld-influencer\\contracts\\ImbuEvents.sol",
  "compiler": {
    "name": "solc",
    "version": "0.5.16+commit.9c3226ce.Emscripten.clang"
  },
  "schemaVersion": "3.4.3",
  "updatedAt": "2021-09-06T05:20:21.146Z",
  "networkType": "ethereum",
  "devdoc": {
    "methods": {}
  },
  "userdoc": {
    "methods": {}
  }
}