{
  "contractName": "ImbuEvents",
  "abi": [
    {
      "anonymous": false,
      "inputs": [
        {
          "indexed": false,
          "internalType": "uint256",
          "name": "id",
          "type": "uint256"
        },
        {
          "indexed": false,
          "internalType": "string",
          "name": "name",
          "type": "string"
        },
        {
          "indexed": false,
          "internalType": "uint256",
          "name": "price",
          "type": "uint256"
        },
        {
          "indexed": false,
          "internalType": "string",
          "name": "startTime",
          "type": "string"
        },
        {
          "indexed": false,
          "internalType": "string",
          "name": "endTime",
          "type": "string"
        },
        {
          "indexed": false,
          "internalType": "address payable",
          "name": "owner",
          "type": "address"
        }
      ],
      "name": "EventCreated",
      "type": "event"
    },
    {
      "anonymous": false,
      "inputs": [
        {
          "indexed": false,
          "internalType": "uint256",
          "name": "id",
          "type": "uint256"
        },
        {
          "indexed": false,
          "internalType": "string",
          "name": "name",
          "type": "string"
        },
        {
          "indexed": false,
          "internalType": "uint256",
          "name": "price",
          "type": "uint256"
        },
        {
          "indexed": false,
          "internalType": "address payable",
          "name": "subscriber",
          "type": "address"
        }
      ],
      "name": "EventPurchased",
      "type": "event"
    },
    {
      "anonymous": false,
      "inputs": [
        {
          "indexed": false,
          "internalType": "uint256",
          "name": "id",
          "type": "uint256"
        },
        {
          "indexed": false,
          "internalType": "string",
          "name": "name",
          "type": "string"
        },
        {
          "indexed": false,
          "internalType": "uint256",
          "name": "price",
          "type": "uint256"
        },
        {
          "indexed": false,
          "internalType": "address payable",
          "name": "owner",
          "type": "address"
        }
      ],
      "name": "EventStarted",
      "type": "event"
    },
    {
      "constant": true,
      "inputs": [],
      "name": "eventCount",
      "outputs": [
        {
          "internalType": "uint256",
          "name": "",
          "type": "uint256"
        }
      ],
      "payable": false,
      "stateMutability": "view",
      "type": "function"
    },
    {
      "constant": true,
      "inputs": [
        {
          "internalType": "uint256",
          "name": "",
          "type": "uint256"
        }
      ],
      "name": "events",
      "outputs": [
        {
          "internalType": "uint256",
          "name": "id",
          "type": "uint256"
        },
        {
          "internalType": "string",
          "name": "name",
          "type": "string"
        },
        {
          "internalType": "uint256",
          "name": "price",
          "type": "uint256"
        },
        {
          "internalType": "address payable",
          "name": "owner",
          "type": "address"
        },
        {
          "internalType": "uint256",
          "name": "subscriberCounts",
          "type": "uint256"
        },
        {
          "internalType": "string",
          "name": "startTime",
          "type": "string"
        },
        {
          "internalType": "string",
          "name": "endTime",
          "type": "string"
        },
        {
          "internalType": "bool",
          "name": "isStarted",
          "type": "bool"
        }
      ],
      "payable": false,
      "stateMutability": "view",
      "type": "function"
    },
    {
      "constant": false,
      "inputs": [
        {
          "internalType": "string",
          "name": "_name",
          "type": "string"
        },
        {
          "internalType": "uint256",
          "name": "_price",
          "type": "uint256"
        },
        {
          "internalType": "string",
          "name": "_startTime",
          "type": "string"
        },
        {
          "internalType": "string",
          "name": "_endTime",
          "type": "string"
        }
      ],
      "name": "createEvent",
      "outputs": [],
      "payable": false,
      "stateMutability": "nonpayable",
      "type": "function"
    },
    {
      "constant": false,
      "inputs": [
        {
          "internalType": "uint256",
          "name": "_id",
          "type": "uint256"
        }
      ],
      "name": "subscribeEvent",
      "outputs": [],
      "payable": true,
      "stateMutability": "payable",
      "type": "function"
    },
    {
      "constant": false,
      "inputs": [
        {
          "internalType": "uint256",
          "name": "_id",
          "type": "uint256"
        }
      ],
      "name": "startEvent",
      "outputs": [],
      "payable": false,
      "stateMutability": "nonpayable",
      "type": "function"
    }
  ],
  "bytecode": "0x60806040526000805534801561001457600080fd5b50611746806100246000396000f3fe60806040526004361061004a5760003560e01c80630b7914301461004f57806371be2e4a1461022e5780639052d7b914610259578063a59a695314610287578063a7206202146102c2575b600080fd5b34801561005b57600080fd5b506100886004803603602081101561007257600080fd5b81019080803590602001909291905050506104c2565b60405180898152602001806020018881526020018773ffffffffffffffffffffffffffffffffffffffff1673ffffffffffffffffffffffffffffffffffffffff16815260200186815260200180602001806020018515151515815260200184810384528b818151815260200191508051906020019080838360005b8381101561011e578082015181840152602081019050610103565b50505050905090810190601f16801561014b5780820380516001836020036101000a031916815260200191505b50848103835287818151815260200191508051906020019080838360005b83811015610184578082015181840152602081019050610169565b50505050905090810190601f1680156101b15780820380516001836020036101000a031916815260200191505b50848103825286818151815260200191508051906020019080838360005b838110156101ea5780820151818401526020810190506101cf565b50505050905090810190601f1680156102175780820380516001836020036101000a031916815260200191505b509b50505050505050505050505060405180910390f35b34801561023a57600080fd5b506102436106ff565b6040518082815260200191505060405180910390f35b6102856004803603602081101561026f57600080fd5b8101908080359060200190929190505050610705565b005b34801561029357600080fd5b506102c0600480360360208110156102aa57600080fd5b8101908080359060200190929190505050610b7f565b005b3480156102ce57600080fd5b506104c0600480360360808110156102e557600080fd5b810190808035906020019064010000000081111561030257600080fd5b82018360208201111561031457600080fd5b8035906020019184600183028401116401000000008311171561033657600080fd5b91908080601f016020809104026020016040519081016040528093929190818152602001838380828437600081840152601f19601f82011690508083019250505050505050919291929080359060200190929190803590602001906401000000008111156103a357600080fd5b8201836020820111156103b557600080fd5b803590602001918460018302840111640100000000831117156103d757600080fd5b91908080601f016020809104026020016040519081016040528093929190818152602001838380828437600081840152601f19601f8201169050808301925050505050505091929192908035906020019064010000000081111561043a57600080fd5b82018360208201111561044c57600080fd5b8035906020019184600183028401116401000000008311171561046e57600080fd5b91908080601f016020809104026020016040519081016040528093929190818152602001838380828437600081840152601f19601f8201169050808301925050505050505091929192905050506110ba565b005b6001602052806000526040600020600091509050806000015490806001018054600181600116156101000203166002900480601f0160208091040260200160405190810160405280929190818152602001828054600181600116156101000203166002900480156105745780601f1061054957610100808354040283529160200191610574565b820191906000526020600020905b81548152906001019060200180831161055757829003601f168201915b5050505050908060020154908060030160009054906101000a900473ffffffffffffffffffffffffffffffffffffffff1690806005015490806006018054600181600116156101000203166002900480601f0160208091040260200160405190810160405280929190818152602001828054600181600116156101000203166002900480156106445780601f1061061957610100808354040283529160200191610644565b820191906000526020600020905b81548152906001019060200180831161062757829003601f168201915b505050505090806007018054600181600116156101000203166002900480601f0160208091040260200160405190810160405280929190818152602001828054600181600116156101000203166002900480156106e25780601f106106b7576101008083540402835291602001916106e2565b820191906000526020600020905b8154815290600101906020018083116106c557829003601f168201915b5050505050908060080160009054906101000a900460ff16905088565b60005481565b600060016000838152602001908152602001600020905060008160030160009054906101000a900473ffffffffffffffffffffffffffffffffffffffff1690506000826000015411801561075f5750600054826000015411155b61076857600080fd5b816002015434101561077957600080fd5b3373ffffffffffffffffffffffffffffffffffffffff168173ffffffffffffffffffffffffffffffffffffffff1614156107b257600080fd5b600080905060008090505b836004018054905081101561084b573373ffffffffffffffffffffffffffffffffffffffff168460040182815481106107f257fe5b9060005260206000200160009054906101000a900473ffffffffffffffffffffffffffffffffffffffff1673ffffffffffffffffffffffffffffffffffffffff16141561083e57600191505b80806001019150506107bd565b50600015158115151415610b79578260050160008154809291906001019190505550826004013390806001815401808255809150509060018203906000526020600020016000909192909190916101000a81548173ffffffffffffffffffffffffffffffffffffffff021916908373ffffffffffffffffffffffffffffffffffffffff160217905550508260016000868152602001908152602001600020600082015481600001556001820181600101908054600181600116156101000203166002900461091a929190611462565b50600282015481600201556003820160009054906101000a900473ffffffffffffffffffffffffffffffffffffffff168160030160006101000a81548173ffffffffffffffffffffffffffffffffffffffff021916908373ffffffffffffffffffffffffffffffffffffffff16021790555060048201816004019080546109a29291906114e9565b5060058201548160050155600682018160060190805460018160011615610100020316600290046109d4929190611462565b50600782018160070190805460018160011615610100020316600290046109fc929190611462565b506008820160009054906101000a900460ff168160080160006101000a81548160ff0219169083151502179055509050508173ffffffffffffffffffffffffffffffffffffffff166108fc349081150290604051600060405180830381858888f19350505050158015610a73573d6000803e3d6000fd5b507ffb73ef0628e895c892e317e9eed0d0be12de1455b9f47886c632582274339c34848460010185600201543360405180858152602001806020018481526020018373ffffffffffffffffffffffffffffffffffffffff1673ffffffffffffffffffffffffffffffffffffffff168152602001828103825285818154600181600116156101000203166002900481526020019150805460018160011615610100020316600290048015610b675780601f10610b3c57610100808354040283529160200191610b67565b820191906000526020600020905b815481529060010190602001808311610b4a57829003601f168201915b50509550505050505060405180910390a15b50505050565b610b8761153b565b600160008381526020019081526020016000206040518061012001604052908160008201548152602001600182018054600181600116156101000203166002900480601f016020809104026020016040519081016040528092919081815260200182805460018160011615610100020316600290048015610c495780601f10610c1e57610100808354040283529160200191610c49565b820191906000526020600020905b815481529060010190602001808311610c2c57829003601f168201915b50505050508152602001600282015481526020016003820160009054906101000a900473ffffffffffffffffffffffffffffffffffffffff1673ffffffffffffffffffffffffffffffffffffffff1673ffffffffffffffffffffffffffffffffffffffff16815260200160048201805480602002602001604051908101604052809291908181526020018280548015610d3757602002820191906000526020600020905b8160009054906101000a900473ffffffffffffffffffffffffffffffffffffffff1673ffffffffffffffffffffffffffffffffffffffff1681526020019060010190808311610ced575b5050505050815260200160058201548152602001600682018054600181600116156101000203166002900480601f016020809104026020016040519081016040528092919081815260200182805460018160011615610100020316600290048015610de35780601f10610db857610100808354040283529160200191610de3565b820191906000526020600020905b815481529060010190602001808311610dc657829003601f168201915b50505050508152602001600782018054600181600116156101000203166002900480601f016020809104026020016040519081016040528092919081815260200182805460018160011615610100020316600290048015610e855780601f10610e5a57610100808354040283529160200191610e85565b820191906000526020600020905b815481529060010190602001808311610e6857829003601f168201915b505050505081526020016008820160009054906101000a900460ff16151515158152505090506001816101000190151590811515815250508060016000848152602001908152602001600020600082015181600001556020820151816001019080519060200190610ef792919061159f565b506040820151816002015560608201518160030160006101000a81548173ffffffffffffffffffffffffffffffffffffffff021916908373ffffffffffffffffffffffffffffffffffffffff1602179055506080820151816004019080519060200190610f6592919061161f565b5060a0820151816005015560c0820151816006019080519060200190610f8c92919061159f565b5060e0820151816007019080519060200190610fa992919061159f565b506101008201518160080160006101000a81548160ff0219169083151502179055509050507f3ff0f2c812fe8e5eed38c0bc2cd0a4589aa7c1eb7ead1909859c7a573ae8b5df82826020015183604001513360405180858152602001806020018481526020018373ffffffffffffffffffffffffffffffffffffffff1673ffffffffffffffffffffffffffffffffffffffff168152602001828103825285818151815260200191508051906020019080838360005b8381101561107957808201518184015260208101905061105e565b50505050905090810190601f1680156110a65780820380516001836020036101000a031916815260200191505b509550505050505060405180910390a15050565b60008451116110c857600080fd5b60008310156110d657600080fd5b60008251116110e457600080fd5b60008151116110f257600080fd5b600080815480929190600101919050555060405180610120016040528060005481526020018581526020018481526020013373ffffffffffffffffffffffffffffffffffffffff168152602001600060405190808252806020026020018201604052801561116f5781602001602082028038833980820191505090505b508152602001600081526020018381526020018281526020016000151581525060016000805481526020019081526020016000206000820151816000015560208201518160010190805190602001906111c992919061159f565b506040820151816002015560608201518160030160006101000a81548173ffffffffffffffffffffffffffffffffffffffff021916908373ffffffffffffffffffffffffffffffffffffffff160217905550608082015181600401908051906020019061123792919061161f565b5060a0820151816005015560c082015181600601908051906020019061125e92919061159f565b5060e082015181600701908051906020019061127b92919061159f565b506101008201518160080160006101000a81548160ff0219169083151502179055509050507fe8d0c29fa5766052570230dd96d84c686487ba683c76c1567f1917262c6734836000548585858533604051808781526020018060200186815260200180602001806020018573ffffffffffffffffffffffffffffffffffffffff1673ffffffffffffffffffffffffffffffffffffffff168152602001848103845289818151815260200191508051906020019080838360005b8381101561134f578082015181840152602081019050611334565b50505050905090810190601f16801561137c5780820380516001836020036101000a031916815260200191505b50848103835287818151815260200191508051906020019080838360005b838110156113b557808201518184015260208101905061139a565b50505050905090810190601f1680156113e25780820380516001836020036101000a031916815260200191505b50848103825286818151815260200191508051906020019080838360005b8381101561141b578082015181840152602081019050611400565b50505050905090810190601f1680156114485780820380516001836020036101000a031916815260200191505b50995050505050505050505060405180910390a150505050565b828054600181600116156101000203166002900490600052602060002090601f016020900481019282601f1061149b57805485556114d8565b828001600101855582156114d857600052602060002091601f016020900482015b828111156114d75782548255916001019190600101906114bc565b5b5090506114e591906116a9565b5090565b82805482825590600052602060002090810192821561152a5760005260206000209182015b8281111561152957825482559160010191906001019061150e565b5b50905061153791906116ce565b5090565b604051806101200160405280600081526020016060815260200160008152602001600073ffffffffffffffffffffffffffffffffffffffff168152602001606081526020016000815260200160608152602001606081526020016000151581525090565b828054600181600116156101000203166002900490600052602060002090601f016020900481019282601f106115e057805160ff191683800117855561160e565b8280016001018555821561160e579182015b8281111561160d5782518255916020019190600101906115f2565b5b50905061161b91906116a9565b5090565b828054828255906000526020600020908101928215611698579160200282015b828111156116975782518260006101000a81548173ffffffffffffffffffffffffffffffffffffffff021916908373ffffffffffffffffffffffffffffffffffffffff1602179055509160200191906001019061163f565b5b5090506116a591906116ce565b5090565b6116cb91905b808211156116c75760008160009055506001016116af565b5090565b90565b61170e91905b8082111561170a57600081816101000a81549073ffffffffffffffffffffffffffffffffffffffff0219169055506001016116d4565b5090565b9056fea265627a7a723158204e4d85b756610a30edbc57e4322b004be93878f2dca5fff84ef7c7694d12433264736f6c63430005100032",
  "source": "pragma solidity 0.5.16;\r\ncontract ImbuEvents {\r\n  uint public eventCount = 0;\r\n  mapping(uint => Event) public events;\r\n\r\n  struct Event {\r\n    uint id;\r\n    string name;\r\n    uint price;\r\n    address payable owner;\r\n    address payable[] subscribers;\r\n    uint subscriberCounts;\r\n    string startTime;\r\n    string endTime;\r\n    bool isStarted;\r\n  }\r\n\r\n  event EventCreated(\r\n    uint id,\r\n    string name,\r\n    uint price,\r\n    string startTime,\r\n    string endTime,\r\n    address payable owner\r\n  );\r\n\r\n  event EventPurchased(\r\n    uint id,\r\n    string name,\r\n    uint price,\r\n    address payable subscriber\r\n  );\r\n\r\n  event EventStarted(\r\n    uint id,\r\n    string name,\r\n    uint price,\r\n    address payable owner\r\n  );\r\n\r\n  function createEvent(string memory _name, uint _price, string memory _startTime, string memory _endTime) public {\r\n    require(bytes(_name).length > 0);\r\n    require(_price >= 0);\r\n    require(bytes(_startTime).length > 0);\r\n    require(bytes(_endTime).length > 0);\r\n    eventCount ++;\r\n    events[eventCount] = Event(eventCount, _name, _price, msg.sender, new address payable[](0), 0, _startTime, _endTime, false);\r\n\r\n    emit EventCreated(eventCount, _name, _price, _startTime, _endTime, msg.sender);\r\n  }\r\n\r\n  function subscribeEvent(uint _id) public payable {\r\n    // Get the event\r\n    Event storage _event = events[_id];\r\n    // Get the owner\r\n    address payable _owner = _event.owner;\r\n    // Validation id, enough Ether, \r\n    require(_event.id > 0 && _event.id <= eventCount);\r\n    // Require that there is enough Ether in the transaction\r\n    require(msg.value >= _event.price);\r\n    // Require that the buyer is not the event owner\r\n    require(_owner != msg.sender);\r\n    // Check if user purchased\r\n    bool isPurchased = false;\r\n    for (uint j = 0; j < _event.subscribers.length; j++) {\r\n      if(_event.subscribers[j] == msg.sender) {\r\n        isPurchased = true;\r\n      }\r\n    }\r\n\r\n    if (isPurchased == false) {\r\n      // Add address to subscribers\r\n      _event.subscriberCounts++;\r\n      _event.subscribers.push(msg.sender);\r\n      // Update the event\r\n      events[_id] = _event;\r\n      // Pay the owner by sending them Ether\r\n      address(_owner).transfer(msg.value);\r\n      \r\n      emit EventPurchased(_id, _event.name, _event.price, msg.sender);\r\n    }\r\n  }\r\n\r\n  function startEvent(uint _id) public {\r\n    Event memory _event = events[_id];\r\n    _event.isStarted = true;\r\n    events[_id] = _event;\r\n\r\n    emit EventStarted(_id, _event.name, _event.price, msg.sender);\r\n  }\r\n  \r\n}\r\n",
  "sourcePath": "D:\\Projects\\Blockchain\\imbueworld-influencer\\contracts\\ImbuEvents.sol",
  "compiler": {
    "name": "solc",
    "version": "0.5.16+commit.9c3226ce.Emscripten.clang"
  },
  "schemaVersion": "3.4.3",
  "updatedAt": "2021-09-06T17:12:39.713Z",
  "networkType": "ethereum",
  "devdoc": {
    "methods": {}
  },
  "userdoc": {
    "methods": {}
  }
}