{
  "contractName": "ImbuEvents",
  "abi": [
    {
      "anonymous": false,
      "inputs": [
        {
          "indexed": false,
          "internalType": "uint256",
          "name": "id",
          "type": "uint256"
        },
        {
          "indexed": false,
          "internalType": "string",
          "name": "name",
          "type": "string"
        },
        {
          "indexed": false,
          "internalType": "uint256",
          "name": "price",
          "type": "uint256"
        },
        {
          "indexed": false,
          "internalType": "string",
          "name": "startTime",
          "type": "string"
        },
        {
          "indexed": false,
          "internalType": "string",
          "name": "endTime",
          "type": "string"
        },
        {
          "indexed": false,
          "internalType": "address payable",
          "name": "owner",
          "type": "address"
        }
      ],
      "name": "EventCreated",
      "type": "event"
    },
    {
      "anonymous": false,
      "inputs": [
        {
          "indexed": false,
          "internalType": "uint256",
          "name": "id",
          "type": "uint256"
        },
        {
          "indexed": false,
          "internalType": "string",
          "name": "name",
          "type": "string"
        },
        {
          "indexed": false,
          "internalType": "uint256",
          "name": "price",
          "type": "uint256"
        },
        {
          "indexed": false,
          "internalType": "address payable",
          "name": "subscriber",
          "type": "address"
        }
      ],
      "name": "EventPurchased",
      "type": "event"
    },
    {
      "anonymous": false,
      "inputs": [
        {
          "indexed": false,
          "internalType": "uint256",
          "name": "id",
          "type": "uint256"
        },
        {
          "indexed": false,
          "internalType": "string",
          "name": "name",
          "type": "string"
        },
        {
          "indexed": false,
          "internalType": "uint256",
          "name": "price",
          "type": "uint256"
        },
        {
          "indexed": false,
          "internalType": "address payable",
          "name": "owner",
          "type": "address"
        }
      ],
      "name": "EventStarted",
      "type": "event"
    },
    {
      "constant": true,
      "inputs": [],
      "name": "eventCount",
      "outputs": [
        {
          "internalType": "uint256",
          "name": "",
          "type": "uint256"
        }
      ],
      "payable": false,
      "stateMutability": "view",
      "type": "function"
    },
    {
      "constant": true,
      "inputs": [
        {
          "internalType": "uint256",
          "name": "",
          "type": "uint256"
        }
      ],
      "name": "events",
      "outputs": [
        {
          "internalType": "uint256",
          "name": "id",
          "type": "uint256"
        },
        {
          "internalType": "string",
          "name": "name",
          "type": "string"
        },
        {
          "internalType": "string",
          "name": "description",
          "type": "string"
        },
        {
          "internalType": "uint256",
          "name": "price",
          "type": "uint256"
        },
        {
          "internalType": "address payable",
          "name": "owner",
          "type": "address"
        },
        {
          "internalType": "string",
          "name": "startTime",
          "type": "string"
        },
        {
          "internalType": "string",
          "name": "endTime",
          "type": "string"
        },
        {
          "internalType": "bool",
          "name": "isStarted",
          "type": "bool"
        }
      ],
      "payable": false,
      "stateMutability": "view",
      "type": "function"
    },
    {
      "constant": true,
      "inputs": [
        {
          "internalType": "uint256",
          "name": "",
          "type": "uint256"
        }
      ],
      "name": "subscriberList",
      "outputs": [
        {
          "internalType": "uint256",
          "name": "eventId",
          "type": "uint256"
        },
        {
          "internalType": "address payable",
          "name": "subscriberAddress",
          "type": "address"
        }
      ],
      "payable": false,
      "stateMutability": "view",
      "type": "function"
    },
    {
      "constant": true,
      "inputs": [],
      "name": "subscriberListCount",
      "outputs": [
        {
          "internalType": "uint256",
          "name": "",
          "type": "uint256"
        }
      ],
      "payable": false,
      "stateMutability": "view",
      "type": "function"
    },
    {
      "constant": false,
      "inputs": [
        {
          "internalType": "string",
          "name": "_name",
          "type": "string"
        },
        {
          "internalType": "string",
          "name": "_description",
          "type": "string"
        },
        {
          "internalType": "uint256",
          "name": "_price",
          "type": "uint256"
        },
        {
          "internalType": "string",
          "name": "_startTime",
          "type": "string"
        },
        {
          "internalType": "string",
          "name": "_endTime",
          "type": "string"
        }
      ],
      "name": "createEvent",
      "outputs": [],
      "payable": false,
      "stateMutability": "nonpayable",
      "type": "function"
    },
    {
      "constant": false,
      "inputs": [
        {
          "internalType": "uint256",
          "name": "_id",
          "type": "uint256"
        }
      ],
      "name": "subscribeEvent",
      "outputs": [],
      "payable": true,
      "stateMutability": "payable",
      "type": "function"
    },
    {
      "constant": false,
      "inputs": [
        {
          "internalType": "uint256",
          "name": "_id",
          "type": "uint256"
        }
      ],
      "name": "startEvent",
      "outputs": [],
      "payable": false,
      "stateMutability": "nonpayable",
      "type": "function"
    }
  ],
  "bytecode": "0x608060405260008055600060015534801561001957600080fd5b506118ea806100296000396000f3fe6080604052600436106100705760003560e01c806383c2eaba1161004e57806383c2eaba1461057b5780639052d7b9146105fd578063a59a69531461062b578063e237605a1461066657610070565b80630b79143014610075578063648e47bf146102b957806371be2e4a14610550575b600080fd5b34801561008157600080fd5b506100ae6004803603602081101561009857600080fd5b8101908080359060200190929190505050610691565b6040518089815260200180602001806020018881526020018773ffffffffffffffffffffffffffffffffffffffff1673ffffffffffffffffffffffffffffffffffffffff16815260200180602001806020018615151515815260200185810385528c818151815260200191508051906020019080838360005b83811015610142578082015181840152602081019050610127565b50505050905090810190601f16801561016f5780820380516001836020036101000a031916815260200191505b5085810384528b818151815260200191508051906020019080838360005b838110156101a857808201518184015260208101905061018d565b50505050905090810190601f1680156101d55780820380516001836020036101000a031916815260200191505b50858103835288818151815260200191508051906020019080838360005b8381101561020e5780820151818401526020810190506101f3565b50505050905090810190601f16801561023b5780820380516001836020036101000a031916815260200191505b50858103825287818151815260200191508051906020019080838360005b83811015610274578082015181840152602081019050610259565b50505050905090810190601f1680156102a15780820380516001836020036101000a031916815260200191505b509c5050505050505050505050505060405180910390f35b3480156102c557600080fd5b5061054e600480360360a08110156102dc57600080fd5b81019080803590602001906401000000008111156102f957600080fd5b82018360208201111561030b57600080fd5b8035906020019184600183028401116401000000008311171561032d57600080fd5b91908080601f016020809104026020016040519081016040528093929190818152602001838380828437600081840152601f19601f8201169050808301925050505050505091929192908035906020019064010000000081111561039057600080fd5b8201836020820111156103a257600080fd5b803590602001918460018302840111640100000000831117156103c457600080fd5b91908080601f016020809104026020016040519081016040528093929190818152602001838380828437600081840152601f19601f820116905080830192505050505050509192919290803590602001909291908035906020019064010000000081111561043157600080fd5b82018360208201111561044357600080fd5b8035906020019184600183028401116401000000008311171561046557600080fd5b91908080601f016020809104026020016040519081016040528093929190818152602001838380828437600081840152601f19601f820116905080830192505050505050509192919290803590602001906401000000008111156104c857600080fd5b8201836020820111156104da57600080fd5b803590602001918460018302840111640100000000831117156104fc57600080fd5b91908080601f016020809104026020016040519081016040528093929190818152602001838380828437600081840152601f19601f820116905080830192505050505050509192919290505050610966565b005b34801561055c57600080fd5b50610565610cdb565b6040518082815260200191505060405180910390f35b34801561058757600080fd5b506105b46004803603602081101561059e57600080fd5b8101908080359060200190929190505050610ce1565b604051808381526020018273ffffffffffffffffffffffffffffffffffffffff1673ffffffffffffffffffffffffffffffffffffffff1681526020019250505060405180910390f35b6106296004803603602081101561061357600080fd5b8101908080359060200190929190505050610d25565b005b34801561063757600080fd5b506106646004803603602081101561064e57600080fd5b81019080803590602001909291905050506111ed565b005b34801561067257600080fd5b5061067b611726565b6040518082815260200191505060405180910390f35b6002602052806000526040600020600091509050806000015490806001018054600181600116156101000203166002900480601f0160208091040260200160405190810160405280929190818152602001828054600181600116156101000203166002900480156107435780601f1061071857610100808354040283529160200191610743565b820191906000526020600020905b81548152906001019060200180831161072657829003601f168201915b505050505090806002018054600181600116156101000203166002900480601f0160208091040260200160405190810160405280929190818152602001828054600181600116156101000203166002900480156107e15780601f106107b6576101008083540402835291602001916107e1565b820191906000526020600020905b8154815290600101906020018083116107c457829003601f168201915b5050505050908060030154908060040160009054906101000a900473ffffffffffffffffffffffffffffffffffffffff1690806005018054600181600116156101000203166002900480601f0160208091040260200160405190810160405280929190818152602001828054600181600116156101000203166002900480156108ab5780601f10610880576101008083540402835291602001916108ab565b820191906000526020600020905b81548152906001019060200180831161088e57829003601f168201915b505050505090806006018054600181600116156101000203166002900480601f0160208091040260200160405190810160405280929190818152602001828054600181600116156101000203166002900480156109495780601f1061091e57610100808354040283529160200191610949565b820191906000526020600020905b81548152906001019060200180831161092c57829003601f168201915b5050505050908060070160009054906101000a900460ff16905088565b600085511161097457600080fd5b600084511161098257600080fd5b600083101561099057600080fd5b600082511161099e57600080fd5b60008151116109ac57600080fd5b600080815480929190600101919050555060405180610100016040528060005481526020018681526020018581526020018481526020013373ffffffffffffffffffffffffffffffffffffffff168152602001838152602001828152602001600015158152506002600080548152602001908152602001600020600082015181600001556020820151816001019080519060200190610a4c92919061172c565b506040820151816002019080519060200190610a6992919061172c565b506060820151816003015560808201518160040160006101000a81548173ffffffffffffffffffffffffffffffffffffffff021916908373ffffffffffffffffffffffffffffffffffffffff16021790555060a0820151816005019080519060200190610ad792919061172c565b5060c0820151816006019080519060200190610af492919061172c565b5060e08201518160070160006101000a81548160ff0219169083151502179055509050507fe8d0c29fa5766052570230dd96d84c686487ba683c76c1567f1917262c6734836000548685858533604051808781526020018060200186815260200180602001806020018573ffffffffffffffffffffffffffffffffffffffff1673ffffffffffffffffffffffffffffffffffffffff168152602001848103845289818151815260200191508051906020019080838360005b83811015610bc7578082015181840152602081019050610bac565b50505050905090810190601f168015610bf45780820380516001836020036101000a031916815260200191505b50848103835287818151815260200191508051906020019080838360005b83811015610c2d578082015181840152602081019050610c12565b50505050905090810190601f168015610c5a5780820380516001836020036101000a031916815260200191505b50848103825286818151815260200191508051906020019080838360005b83811015610c93578082015181840152602081019050610c78565b50505050905090810190601f168015610cc05780820380516001836020036101000a031916815260200191505b50995050505050505050505060405180910390a15050505050565b60005481565b60036020528060005260406000206000915090508060000154908060010160009054906101000a900473ffffffffffffffffffffffffffffffffffffffff16905082565b600060026000838152602001908152602001600020905060008160040160009054906101000a900473ffffffffffffffffffffffffffffffffffffffff16905060008260000154118015610d7f5750600054826000015411155b610d8857600080fd5b8160030154341015610d9957600080fd5b3373ffffffffffffffffffffffffffffffffffffffff168173ffffffffffffffffffffffffffffffffffffffff161415610dd257600080fd5b600080905060008090505b600154811015610e8857846003600083815260200190815260200160002060000154148015610e6d57503373ffffffffffffffffffffffffffffffffffffffff166003600083815260200190815260200160002060010160009054906101000a900473ffffffffffffffffffffffffffffffffffffffff1673ffffffffffffffffffffffffffffffffffffffff16145b15610e7b5760019150610e88565b8080600101915050610ddd565b506000151581151514156111e75760016000815480929190600101919050555060405180604001604052808581526020013373ffffffffffffffffffffffffffffffffffffffff168152506003600060015481526020019081526020016000206000820151816000015560208201518160010160006101000a81548173ffffffffffffffffffffffffffffffffffffffff021916908373ffffffffffffffffffffffffffffffffffffffff16021790555090505082600260008681526020019081526020016000206000820154816000015560018201816001019080546001816001161561010002031660029004610f819291906117ac565b5060028201816002019080546001816001161561010002031660029004610fa99291906117ac565b50600382015481600301556004820160009054906101000a900473ffffffffffffffffffffffffffffffffffffffff168160040160006101000a81548173ffffffffffffffffffffffffffffffffffffffff021916908373ffffffffffffffffffffffffffffffffffffffff160217905550600582018160050190805460018160011615610100020316600290046110429291906117ac565b506006820181600601908054600181600116156101000203166002900461106a9291906117ac565b506007820160009054906101000a900460ff168160070160006101000a81548160ff0219169083151502179055509050508173ffffffffffffffffffffffffffffffffffffffff166108fc349081150290604051600060405180830381858888f193505050501580156110e1573d6000803e3d6000fd5b507ffb73ef0628e895c892e317e9eed0d0be12de1455b9f47886c632582274339c34848460010185600301543360405180858152602001806020018481526020018373ffffffffffffffffffffffffffffffffffffffff1673ffffffffffffffffffffffffffffffffffffffff1681526020018281038252858181546001816001161561010002031660029004815260200191508054600181600116156101000203166002900480156111d55780601f106111aa576101008083540402835291602001916111d5565b820191906000526020600020905b8154815290600101906020018083116111b857829003601f168201915b50509550505050505060405180910390a15b50505050565b6111f5611833565b600260008381526020019081526020016000206040518061010001604052908160008201548152602001600182018054600181600116156101000203166002900480601f0160208091040260200160405190810160405280929190818152602001828054600181600116156101000203166002900480156112b75780601f1061128c576101008083540402835291602001916112b7565b820191906000526020600020905b81548152906001019060200180831161129a57829003601f168201915b50505050508152602001600282018054600181600116156101000203166002900480601f0160208091040260200160405190810160405280929190818152602001828054600181600116156101000203166002900480156113595780601f1061132e57610100808354040283529160200191611359565b820191906000526020600020905b81548152906001019060200180831161133c57829003601f168201915b50505050508152602001600382015481526020016004820160009054906101000a900473ffffffffffffffffffffffffffffffffffffffff1673ffffffffffffffffffffffffffffffffffffffff1673ffffffffffffffffffffffffffffffffffffffff168152602001600582018054600181600116156101000203166002900480601f01602080910402602001604051908101604052809291908181526020018280546001816001161561010002031660029004801561145b5780601f106114305761010080835404028352916020019161145b565b820191906000526020600020905b81548152906001019060200180831161143e57829003601f168201915b50505050508152602001600682018054600181600116156101000203166002900480601f0160208091040260200160405190810160405280929190818152602001828054600181600116156101000203166002900480156114fd5780601f106114d2576101008083540402835291602001916114fd565b820191906000526020600020905b8154815290600101906020018083116114e057829003601f168201915b505050505081526020016007820160009054906101000a900460ff161515151581525050905060018160e0019015159081151581525050806002600084815260200190815260200160002060008201518160000155602082015181600101908051906020019061156e92919061172c565b50604082015181600201908051906020019061158b92919061172c565b506060820151816003015560808201518160040160006101000a81548173ffffffffffffffffffffffffffffffffffffffff021916908373ffffffffffffffffffffffffffffffffffffffff16021790555060a08201518160050190805190602001906115f992919061172c565b5060c082015181600601908051906020019061161692919061172c565b5060e08201518160070160006101000a81548160ff0219169083151502179055509050507f3ff0f2c812fe8e5eed38c0bc2cd0a4589aa7c1eb7ead1909859c7a573ae8b5df82826020015183606001513360405180858152602001806020018481526020018373ffffffffffffffffffffffffffffffffffffffff1673ffffffffffffffffffffffffffffffffffffffff168152602001828103825285818151815260200191508051906020019080838360005b838110156116e55780820151818401526020810190506116ca565b50505050905090810190601f1680156117125780820380516001836020036101000a031916815260200191505b509550505050505060405180910390a15050565b60015481565b828054600181600116156101000203166002900490600052602060002090601f016020900481019282601f1061176d57805160ff191683800117855561179b565b8280016001018555821561179b579182015b8281111561179a57825182559160200191906001019061177f565b5b5090506117a89190611890565b5090565b828054600181600116156101000203166002900490600052602060002090601f016020900481019282601f106117e55780548555611822565b8280016001018555821561182257600052602060002091601f016020900482015b82811115611821578254825591600101919060010190611806565b5b50905061182f9190611890565b5090565b60405180610100016040528060008152602001606081526020016060815260200160008152602001600073ffffffffffffffffffffffffffffffffffffffff16815260200160608152602001606081526020016000151581525090565b6118b291905b808211156118ae576000816000905550600101611896565b5090565b9056fea265627a7a723158208b2983835fcbb0d70c34ee915ed02fbfbd2a6f988fd8e545ff64f7c2506f9e4064736f6c63430005100032",
  "source": "pragma solidity 0.5.16;\r\ncontract ImbuEvents {\r\n  uint public eventCount = 0;\r\n  uint public subscriberListCount = 0;\r\n  mapping(uint => Event) public events;\r\n  mapping(uint => Subscriber) public subscriberList;\r\n\r\n  struct Event {\r\n    uint id;\r\n    string name;\r\n    string description;\r\n    uint price;\r\n    address payable owner;\r\n    string startTime;\r\n    string endTime;\r\n    bool isStarted;\r\n  }\r\n  \r\n  struct Subscriber {\r\n    uint eventId;\r\n    address payable subscriberAddress;\r\n  }\r\n\r\n  event EventCreated(\r\n    uint id,\r\n    string name,\r\n    uint price,\r\n    string startTime,\r\n    string endTime,\r\n    address payable owner\r\n  );\r\n\r\n  event EventPurchased(\r\n    uint id,\r\n    string name,\r\n    uint price,\r\n    address payable subscriber\r\n  );\r\n\r\n  event EventStarted(\r\n    uint id,\r\n    string name,\r\n    uint price,\r\n    address payable owner\r\n  );\r\n\r\n  function createEvent(string memory _name, string memory _description, uint _price, string memory _startTime, string memory _endTime) public {\r\n    require(bytes(_name).length > 0);\r\n    require(bytes(_description).length > 0);\r\n    require(_price >= 0);\r\n    require(bytes(_startTime).length > 0);\r\n    require(bytes(_endTime).length > 0);\r\n    eventCount ++;\r\n    events[eventCount] = Event(eventCount, _name, _description, _price, msg.sender,  _startTime, _endTime, false);\r\n\r\n    emit EventCreated(eventCount, _name, _price, _startTime, _endTime, msg.sender);\r\n  }\r\n\r\n  function subscribeEvent(uint _id) public payable {\r\n    // Get the event\r\n    Event storage _event = events[_id];\r\n    // Get the owner\r\n    address payable _owner = _event.owner;\r\n    // Validation id, enough Ether, \r\n    require(_event.id > 0 && _event.id <= eventCount);\r\n    // Require that there is enough Ether in the transaction\r\n    require(msg.value >= _event.price);\r\n    // Require that the buyer is not the event owner\r\n    require(_owner != msg.sender);\r\n    // Check if user purchased\r\n    bool isPurchased = false;\r\n    for (uint j = 0; j < subscriberListCount; j++) {\r\n      if(subscriberList[j].eventId == _id && subscriberList[j].subscriberAddress == msg.sender) {\r\n        isPurchased = true;\r\n        break;\r\n      }\r\n    }\r\n\r\n    if (isPurchased == false) {\r\n      subscriberListCount++;\r\n      subscriberList[subscriberListCount] = Subscriber(_id, msg.sender);\r\n      // Update the event\r\n      events[_id] = _event;\r\n      // Pay the owner by sending them Ether\r\n      address(_owner).transfer(msg.value);\r\n      \r\n      emit EventPurchased(_id, _event.name, _event.price, msg.sender);\r\n    }\r\n  }\r\n\r\n  function startEvent(uint _id) public {\r\n    Event memory _event = events[_id];\r\n    _event.isStarted = true;\r\n    events[_id] = _event;\r\n\r\n    emit EventStarted(_id, _event.name, _event.price, msg.sender);\r\n  }\r\n  \r\n}\r\n",
  "sourcePath": "E:\\workspace\\imbue\\event_creator\\contracts\\ImbuEvents.sol",
  "compiler": {
    "name": "solc",
    "version": "0.5.16+commit.9c3226ce.Emscripten.clang"
  },
  "schemaVersion": "3.4.3",
  "updatedAt": "2021-09-07T10:42:47.740Z",
  "networkType": "ethereum",
  "devdoc": {
    "methods": {}
  },
  "userdoc": {
    "methods": {}
  }
}